:100000000C94AB000C94C8000C94C8000C94C8006D
:100010000C94C8000C94C8000C94C8000C94C80040
:100020000C94C8000C94C8000C94C8000C94C80030
:100030000C94C8000C94C8000C94C8000C94C80020
:100040000C94C8000C94C8000C94C8000C94C80010
:100050000C94C8006E616E00696E660000407A10F4
:10006000F35A00A0724E18090010A5D4E80000E869
:100070007648170000E40B54020000CA9A3B0000C7
:1000800000E1F505000080969800000040420F0056
:100090000000A08601000000102700000000E80317
:1000A000000000006400000000000A0000000000E2
:1000B0000100000000002C76D888DC674F0823DFA1
:1000C000C1DFAE59E1B1B796E5E3E453C63AE65174
:1000D000997696E8E6C28426EB898C9B62ED407C9B
:1000E0006FFCEFBC9C9F40F2BAA56FA5F490055A37
:1000F0002AF75C936B6CF9676DC11BFCE0E40D475C
:10010000FEF520E6B500D0ED902E0300943577057E
:100110000080841E080000204E0A000000C80C3336
:100120003333330F986E12831141EF8D2114893BC5
:10013000E65516CFFEE6DB18D1844B381BF77C1D45
:10014000901DA4BBE424203284725E228100C9F198
:1001500024ECA1E53D2711241FBECFE5D8E0DEBF8A
:10016000CDBF10E0A0E6B0E0EAEEF4E102C00590F9
:100170000D92A03BB107D9F720E0A0EBB0E001C0A1
:100180001D92A13DB207E1F70E94C4030C94730ACB
:100190000C94000090E02FEF2BBB911102C0D89877
:1001A00009C0913011F4D99805C0923011F4DA9851
:1001B00001C0DB9889B3807F803F29F029B3207F7D
:1001C000203FE1F705C09F5F943031F780E008954C
:1001D000923089F4803B69F020F48037B9F78CE0E5
:1001E0000895803D21F0803E89F781E0089582E006
:1001F000089583E00895933089F4803B69F020F4FA
:10020000803721F78DE00895803D21F0803EF1F6A2
:100210008FE0089580E308958EE00895913089F08D
:10022000803B69F020F4803789F68AE00895803DAC
:1002300021F0803E59F687E0089588E0089589E02E
:100240000895803B79F028F4803709F0BFCF8BE028
:100250000895803D29F0803E09F0B8CF84E00895EC
:1002600085E0089586E0089580FF02C0C09A01C02D
:10027000C09881FF02C0C19A01C0C19882FF02C02C
:10028000C29A01C0C29883FF02C0C39A0895C3985E
:100290000895811102C0C5980895813009F4C59A66
:1002A0000895C49A87EC90E00197F1F700C0000030
:1002B000C4988FEC97E00197F1F700C00000089513
:1002C00087B38F6387BB0895CF93C82F80E00E94C8
:1002D00049018C2F0E943401CF910C9451010E944E
:1002E000600180E00E94640182E00E94640182E07B
:1002F0000E94640188E00E94640180E00E94640121
:100300008CE00E94640180E00E94640186E00C940D
:100310006401CF93C82FC59A82958F700E943401D3
:100320000E9451018C2F8F700E943401CF910C9448
:100330005101CF93C62F811102C088E003C08130E4
:1003400039F48CE00E9464018C2FCF910C946401ED
:10035000CF91089580E00E94640181E00E946401D1
:1003600080E00E94640182E00C9464010F931F936B
:10037000CF93DF938A010E949901E8018991882334
:1003800019F00E948901FACFDF91CF911F910F914F
:100390000895823529F481E00E94640188E006C056
:1003A0008C3431F481E00E9464018CE00C9464018F
:1003B00008958FE08ABB0C946F018091C7009091E3
:1003C000C8008D30910561F41092C8001092C700EA
:1003D00081E090E09093C6008093C5008BE20EC050
:1003E0008C30910571F41092C8001092C70082E021
:1003F00090E09093C6008093C5008DE28093C40086
:1004000008958B30910561F41092C8001092C700D6
:1004100083E090E09093C6008093C50088E7EECF1C
:100420008A30910561F41092C8001092C70084E0F0
:1004300090E09093C6008093C5008FE2DFCF8E30AE
:10044000910559F41092C8001092C70085E090E021
:100450009093C6008093C50008958033910529F4D8
:100460001092C8001092C70008950F9711F51092CE
:10047000CD001092CE001092CF001092D0001092BA
:10048000C9001092CA001092CB001092CC001092BA
:10049000C0001092C1001092C2001092C3001092CE
:1004A000C6001092C5001092C8001092C7000C94AC
:1004B000AA010895CF92DF92EF92FF920F931F93BC
:1004C0008091C5009091C6000097B1F52091CD00B4
:1004D0003091CE004091CF005091D000AAE0B0E022
:1004E0000E9478082091C7003091C800DC01CB0140
:1004F000820F931FA11DB11D8093CD009093CE005C
:10050000A093CF00B093D000BF93AF939F938F93EE
:1005100086E690E09F938F9380EB90E09F938F937C
:100520000E94F3090DB71EB7085F1F4F0FB6F8946E
:100530001EBF0FBE0DBF4CC09C012150310924309D
:10054000310508F051C02091C9003091CA00409196
:10055000CB005091CC00AAE0B0E00E947808209136
:10056000C7003091C800DC01CB01820F931FA11D91
:10057000B11D8093C9009093CA00A093CB00B093A3
:10058000CC00BF93AF939F938F938091C4001F9231
:100590008F938091D0008F938091CF008F93809123
:1005A000CE008F938091CD008F9380E690E09F9353
:1005B0008F9380EB90E09F938F930E94F3092DB768
:1005C0003EB7225F3F4F0FB6F8943EBF0FBE2DBF20
:1005D00040EB50E060E080E01F910F91FF90EF90C2
:1005E000DF90CF900C94B601059709F0B4C08091CC
:1005F000C4008B32C9F44091CD005091CE0060917F
:10060000CF007091D0008091C9009091CA00A09154
:10061000CB00B091CC008A019B01080F191F2A1F43
:100620003B1FC901B8012DC08D32B9F48091CD00B6
:100630009091CE00A091CF00B091D000C090C900A1
:10064000D090CA00E090CB00F090CC00BC01CD016E
:100650006C197D098E099F0914C08837A9F420916F
:10066000CD003091CE004091CF005091D0006091EC
:10067000C9007091CA008091CB009091CC000E947B
:1006800068080E945F041EC08F3221F56091CD0082
:100690007091CE008091CF009091D0000E945F04B5
:1006A0006B017C016091C9007091CA008091CB0000
:1006B0009091CC000E945F049B01AC01C701B60180
:1006C0000E94EB036093C0007093C1008093C2004E
:1006D0009093C3008091C3008F938091C2008F9349
:1006E0008091C1008F938091C0008F938BE690E042
:1006F0009F938F9380EB90E09F938F930E94F309D9
:1007000040EB50E060E081E00E94B6011092CD0025
:100710001092CE001092CF001092D0001092C9001B
:100720001092CA001092CB001092CC001092C00020
:100730001092C1001092C2001092C3001092C60025
:100740001092C5002DB73EB7285F3F4F0FB6F89403
:100750003EBF0FBE2DBF1F910F91FF90EF90DF9016
:10076000CF9008950E94CA0090E09093C8008093B3
:10077000C700892B41F00E94DD010E945A021092AD
:10078000C8001092C70008950E94D90141E750E0C7
:1007900060E080E00E94B60144E950E064E081E05E
:1007A0000E94B6012FEF80E792E0215080409040F8
:1007B000E1F700C00000C9E1D0E08FE19EE40197BD
:1007C000F1F700C000008CE40E94C9012197A9F74D
:1007D0000E94B203FDCF0E94FF030C94B1040E945B
:1007E000AA0458F00E94A30440F029F45F3F29F0C6
:1007F0000C949A0451110C94E5040C94A0040E94EA
:10080000C20468F39923B1F3552391F3951B550B5B
:10081000BB27AA2762177307840738F09F5F5F4FD3
:10082000220F331F441FAA1FA9F335D00E2E3AF012
:10083000E0E832D091505040E695001CCAF72BD02A
:10084000FE2F29D0660F771F881FBB1F261737077B
:100850004807AB07B0E809F0BB0B802DBF01FF27AD
:1008600093585F4F3AF09E3F510578F00C949A04EC
:100870000C94E5045F3FE4F3983ED4F386957795B6
:100880006795B795F7959F5FC9F7880F911D969566
:10089000879597F90895E1E0660F771F881FBB1FC2
:1008A000621773078407BA0720F0621B730B840B6F
:1008B000BA0BEE1F88F7E0950895E89409C097FBFE
:1008C0003EF490958095709561957F4F8F4F9F4F27
:1008D0009923A9F0F92F96E9BB279395F69587956B
:1008E00077956795B795F111F8CFFAF4BB0F11F42E
:1008F00060FF1BC06F5F7F4F8F4F9F4F16C08823D5
:1009000011F096E911C0772321F09EE8872F762F0A
:1009100005C0662371F096E8862F70E060E02AF04B
:100920009A95660F771F881FDAF7880F9695879537
:1009300097F9089597F99F6780E870E060E008955F
:100940009FEF80EC089500240A94161617061806E7
:100950000906089500240A941216130614060506C3
:100960000895092E0394000C11F4882352F0BB0F54
:1009700040F4BF2B11F460FF04C06F5F7F4F8F4FB7
:100980009F4F089557FD9058440F551F59F05F3FF2
:1009900071F04795880F97FB991F61F09F3F79F0A1
:1009A00087950895121613061406551FF2CF469523
:1009B000F1DF08C0161617061806991FF1CF8695A5
:1009C0007105610508940895E894BB276627772789
:1009D000CB0197F90895A0E1B0E0E1EFF4E00C94C9
:1009E00083087C011B016A01FC0117821682838146
:1009F00081FF44C39E012F5F3F4F3901F70193816F
:100A0000F10193FD859193FF81911F01882309F4E2
:100A100031C3853239F493FD859193FF81911F0194
:100A2000853239F4B70190E00E94B709560165019B
:100A3000E5CF10E0512C912CFFE1F915D8F08B3265
:100A400079F038F4803279F08332A1F4F92DF06135
:100A50002EC08D3261F0803369F4292D21602DC0C4
:100A6000392D3260932E892D8460982E2AC0E92D6D
:100A7000E86015C097FC2DC020ED280F2A3088F4BF
:100A800096FE06C03AE0139F200D1124122F19C0C4
:100A90008AE0589E200D1124522EE92DE0629E2EF0
:100AA00010C08E3231F496FCE5C2F92DF0649F2E11
:100AB00008C08C3621F4292D2068922E02C0883679
:100AC00041F4F10193FD859193FF81911F01811103
:100AD000B3CF9BEB980F933020F4992D9061805EFB
:100AE00007C09BE9980F933008F066C1992D9F7E4F
:100AF00096FF16E09F73992E853619F49064992E0F
:100B000008C0863621F4392F3068932E02C01111A7
:100B1000115097FE07C01C3350F444244394410EF7
:100B200027E00BC0183038F027E017E005C027E0B9
:100B30009CE3492E02C0212F412C560184E0A80ECF
:100B4000B11CF6016081718182819381042DA30122
:100B50000E94C9086C01F981FC87F0FF02C0F3FF15
:100B600006C091FC06C092FE06C000E205C00DE280
:100B700003C00BE201C000E08C858C7019F00111FC
:100B80005AC29BC297FE10C04C0CFC85F4FF04C0F7
:100B90008A81813309F44A94141474F528E02415E9
:100BA00078F588E0482E2CC096FC2AC0812F90E072
:100BB0008C159D059CF03CEFC3163FEFD30674F0F7
:100BC000892D8068982E0AC0E2E0F0E0EC0FFD1F4E
:100BD000E10FF11D8081803319F411501111F4CF10
:100BE00097FE0EC044244394410E812F90E0C81616
:100BF000D9062CF41C1904C04424439401C010E00D
:100C000097FE06C01C141D0434F4C601019605C0ED
:100C100085E090E002C081E090E00111019611238F
:100C200031F0212F30E02F5F3F4F820F931F252D92
:100C300030E08217930714F4581A01C0512C892D03
:100C4000897049F4552039F0B70180E290E00E94A4
:100C5000B7095A94F7CF002329F0B701802F90E00D
:100C60000E94B70993FC09C0552039F0B70180E311
:100C700090E00E94B7095A94F7CF97FE4CC0460106
:100C8000D7FE02C0812C912CC60188199909F30165
:100C9000E80FF91FFE87ED87960124193109388B7B
:100CA0002F87012F10E01195019511093FEF831651
:100CB000930629F4B7018EE290E00E94B709C814A8
:100CC000D9044CF08F8598898815990524F4ED8511
:100CD000FE85818101C080E3F1E08F1A91082D85A6
:100CE0003E852F5F3F4F3E872D87801691062CF063
:100CF000B70190E00E94B709D9CFC814D90441F4D4
:100D00009A81963320F4953319F43C8534FF81E3BE
:100D1000B70190E04EC08A81813319F09C859F7E97
:100D20009C87B70190E00E94B709111105C094FC9F
:100D300018C085E690E017C0B7018EE290E00E94EF
:100D4000B7091E5F82E001E0080FF301E80FF11D13
:100D50008081B70190E00E94B709802F0113F3CF83
:100D6000E6CF85E490E0B7010E94B709D7FC06C042
:100D7000C114D10441F4EC85E4FF05C0D194C194C1
:100D8000D1088DE201C08BE2B70190E00E94B70963
:100D900080E32AE0C216D1042CF08F5FFAE0CF1A6C
:100DA000D108F7CFB70190E00E94B709B701C6019B
:100DB000C0960E94B70954C1833631F0833779F069
:100DC000833509F056C020C0560132E0A30EB11C95
:100DD000F6018081898301E010E0630112C05601B1
:100DE000F2E0AF0EB11CF601C080D18096FE03C0C8
:100DF000612F70E002C06FEF7FEFC6010E94AC0967
:100E00008C01F92DFF7714C0560122E0A20EB11C0F
:100E1000F601C080D18096FE03C0612F70E002C051
:100E20006FEF7FEFC6010E94A1098C01F92DF068D8
:100E30009F2EF3FD1AC0852D90E008171907A8F41E
:100E4000B70180E290E00E94B7095A94F4CFF6010E
:100E500097FC859197FE81916F01B70190E00E9408
:100E6000B70951105A94015011090115110579F76C
:100E7000F7C0843611F0893661F5560197FE09C036
:100E800024E0A20EB11CF601608171818281938100
:100E90000AC0F2E0AF0EB11CF60160817181072E2D
:100EA000000C880B990BF92DFF769F2E97FF09C038
:100EB00090958095709561957F4F8F4F9F4FF0680B
:100EC0009F2E2AE030E0A3010E94150AC82EC61802
:100ED0003FC0092D853721F40F7E2AE030E01DC088
:100EE000097F8F3691F018F4883559F0C3C08037E8
:100EF00019F0883711F0BEC0006104FF09C004601A
:100F000007C094FE08C0066006C028E030E005C0B7
:100F100020E130E002C020E132E0560107FF09C0C5
:100F200084E0A80EB11CF6016081718182819381F9
:100F300008C0F2E0AF0EB11CF6016081718180E063
:100F400090E0A3010E94150AC82EC6180F77902EB4
:100F500096FE0BC0092D0E7FC11650F494FE0AC0F8
:100F600092FC08C0092D0E7E05C0DC2C092D03C0A3
:100F7000DC2C01C0D12E04FF0DC0FE01EC0DF11DD3
:100F80008081803311F4097E09C002FF06C0D3942A
:100F9000D39404C0802F867809F0D39403FD11C048
:100FA00000FF06C01C2DD51480F4150D1D190DC0B1
:100FB000D51458F4B70180E290E00E94B709D394A9
:100FC000F7CFD51410F45D1801C0512C04FF10C0E8
:100FD000B70180E390E00E94B70902FF17C001FD4E
:100FE00003C088E790E002C088E590E0B7010CC03C
:100FF000802F867859F001FF02C08BE201C080E2A9
:1010000007FD8DE2B70190E00E94B709C11638F4E0
:10101000B70180E390E00E94B7091150F7CFCA945E
:10102000F301EC0DF11D8081B70190E00E94B7093A
:10103000C110F5CF15C0F4E0F51560F584E0581A3D
:1010400093FE1FC0011127C02C8523FF2AC004E591
:1010500010E0392D3071932EF8018491811124C054
:10106000552009F4E4CCB70180E290E00E94B70972
:101070005A94F6CFF7018681978126C08FEF9FEFB4
:1010800023C0B70180E290E00E94B7095A94511042
:10109000F8CFD8CF512CB701802F90E00E94B7092C
:1010A000D3CF08E510E0D5CF91108052B70190E082
:1010B0000E94B7090F5F1F4FCFCF23E0251510F413
:1010C00083E0BDCF512CC0CF6096E2E10C949F0825
:1010D000DB018F939F930E947808BF91AF91A29FED
:1010E000800D911DA39F900DB29F900D1124089526
:1010F0000E94BA08A59F900DB49F900DA49F800DEB
:10110000911D112408952F923F924F925F926F92FA
:101110007F928F929F92AF92BF92CF92DF92EF9287
:10112000FF920F931F93CF93DF93CDB7DEB7CA1B08
:10113000DB0B0FB6F894DEBF0FBECDBF09942A8833
:10114000398848885F846E847D848C849B84AA84DB
:10115000B984C884DF80EE80FD800C811B81AA8168
:10116000B981CE0FD11D0FB6F894DEBF0FBECDBF33
:10117000ED010895A29FB001B39FC001A39F700D20
:10118000811D1124911DB29F700D811D1124911D8F
:101190000895283008F027E03327DA01990F311D30
:1011A00087FD916000966105710539F432602E5F0C
:1011B0003D9330E32A95E1F708959F3F30F0803862
:1011C0007105610509F03C5F3C5F3D93913008F08B
:1011D0008068911DDF93CF931F930F93FF92EF923F
:1011E000192F987F9695E92F96959695E90FFF27E9
:1011F000EA54FF4F99273327EE24FF24A701E70184
:1012000005900894079428F4360FE71EF81E491F2E
:10121000511D660F771F881F991F0694A1F705902F
:10122000079428F4E70EF81E491F561FC11D770FBB
:10123000881F991F661F0694A1F70590079428F44C
:10124000F80E491F561FC71FD11D880F991F661F13
:10125000771F0694A1F70590079420F4490F561FB5
:10126000C71FD81F990F661F771F881F0694A9F7FD
:1012700084911095177041F0D695C795579547956D
:10128000F794E7941A95C1F7ECE5F0E068941590AF
:10129000159135916591959105907FE27395E118CF
:1012A000F10A430B560BC90BD009C0F7E10CF11E34
:1012B000431F561FC91FD01D7EF4703311F48A9549
:1012C000E6CFE894015030F0080F0AF40027021727
:1012D00008F4202F2395022F7A3328F079E37D93A9
:1012E0002A95E9F710C07D932A9589F6069497957B
:1012F0006795379517951794E118F10A430B560B2C
:10130000C90BD00998F023957E9173957A3308F034
:1013100070E37C932013B8F77E9170617D9330F079
:10132000839571E37D9370E32A95E1F71124EF90A3
:10133000FF900F911F91CF91DF91992787FD909595
:101340000895FC010590615070400110D8F7809518
:1013500090958E0F9F1F0895FC0161507040019081
:101360000110D8F7809590958E0F9F1F08950F93C9
:101370001F93CF93DF93FB01238121FD03C08FEFE8
:101380009FEF2CC022FF16C04681578124813581F2
:101390004217530744F4A081B1819D012F5F3F4F55
:1013A000318320838C93268137812F5F3F4F378392
:1013B000268314C08B01EC01FB010084F185E02D34
:1013C0000995892BE1F6D80116968D919C91179776
:1013D000019617969C938E931697CE01DF91CF912D
:1013E0001F910F910895AEE0B0E0E9EFF9E00C94A1
:1013F00091080D891E8986E08C831A8309838FEFFB
:101400009FE79E838D83AE01475E5F4F6F89788D26
:10141000CE0101960E94EB04EF81F885E00FF11FE9
:1014200010822E96E4E00C94AD08FA01AA27283029
:1014300051F1203181F1E8946F936E7F6E5F7F4FA1
:101440008F4F9F4FAF4FB1E03ED0B4E03CD0670F1D
:10145000781F891F9A1FA11D680F791F8A1F911D70
:10146000A11D6A0F711D811D911DA11D20D009F4C0
:1014700068943F912AE0269F11243019305D319302
:10148000DEF6CF010895462F4770405D4193B3E0EB
:101490000FD0C9F7F6CF462F4F70405D4A3318F092
:1014A000495D31FD4052419302D0A9F7EACFB4E043
:1014B000A6959795879577956795BA95C9F70097FB
:1014C0006105710508959B01AC010A2E069457959C
:1014D000479537952795BA95C9F7620F731F841FF3
:0A14E000951FA01D0895F894FFCF9A
:1014EA0025316C69256325316C69003D252E3266EC
:1014FA00004C45542753205448494E4B2042494EEC
:10150A0041525920504C454153452050524553535E
:10151A00204F4E0048545450533A2F2F5757572EA6
:10152A00454C454354524F4E4946592E4F52470057
:00000001FF
