:1000000010C02AC029C028C027C026C025C024C0CF
:1000100023C022C021C020C01FC01EC01DC01CC0E4
:100020001BC011241FBECFE5D2E0DEBFCDBF10E064
:10003000A0E6B0E0EAEEF0E002C005900D92A83C28
:10004000B107D9F710E0A8ECB0E001C01D92AF3CB9
:10005000B107E1F702D047C0D3CFEF92FF920F93E1
:100060001F93DF93CF93CDB7DEB728970FB6F894E1
:10007000DEBF0FBECDBF8FEF8ABB84BBDE01119602
:10008000E0ECF0E088E001900D928150E1F740E073
:1000900050E07E010894E11CF11C04EF11E0BE0168
:1000A000675F7F4F17C08D918BBB8081809585BB2B
:1000B000C8010197F1F73296A617B707A1F72F5F8E
:1000C0003F4F2436310521F0D701E0EAF0E0EBCFD5
:1000D0004F5F5F4F4530510518F040E050E0FACFD8
:0A00E00020E030E0F1CFF894FFCFEC
:1000EA003F065B4F666D7C077F6F777C395E79715F
:1000FA00FF00FF00C000F800F800C000FF00FF008A
:10010A00FF00C000FE00FF0003000300FF00FF0025
:10011A00FF00FF00C000C000C000C000FF00FF00D9
:10012A003C007E00C300C300C300C3007E003C0045
:10013A00C300E700E700DB00DB00C300C300C30025
:08014A000102040810204080AE
:00000001FF
