:1000000014C037C01AC019C018C017C016C015C018
:1000100014C013C012C011C010C00FC00EC00DC05C
:100020000CC00BC00AC009C008C011241FBECFE518
:10003000D2E0DEBFCDBF02D06DC0E2CF8FEF8ABB72
:100040008BBB80E48BBF82E085BF7894FFCF64E6F2
:1000500070E039D09B0140E068EA71E604C0CB0152
:100060000197F1F74F5F842F90E082179307BCF35D
:1000700008951F920F920FB60F9211242F933F9362
:100080004F935F936F937F938F939F93AF93BF93A0
:10009000EF93FF93DD9A88EE93E0D9DFDD9888EE49
:1000A00093E0D5DFFF91EF91BF91AF919F918F9139
:1000B0007F916F915F914F913F912F910F900FBE64
:1000C0000F901F90189597FB092E07260AD077FDF1
:1000D00004D00CD006D000201AF4709561957F4FA3
:1000E0000895F6F7909581959F4F0895AA1BBB1B25
:1000F00051E107C0AA1FBB1FA617B70710F0A61B28
:10010000B70B881F991F5A95A9F780959095BC0148
:08011000CD010895F894FFCF22
:00000001FF
