:1000000014C02EC02DC02CC02BC02AC029C028C0AF
:1000100027C026C025C024C023C022C021C020C0C4
:100020001FC01EC01DC01CC01BC011241FBECFE5B9
:10003000D2E0DEBFCDBF10E0A0E6B0E0E4EDF1E03D
:1000400002C005900D92A037B107D9F710E0A0E7E4
:10005000B0E001C01D92A737B107E1F702D0B8C0E8
:10006000CFCFCF92DF92EF92FF920F931F938FEF3C
:100070008ABB1BBA87BB18BA8FE084BB80EF85BBF5
:1000800011BA12BA13BE12BE1CBE1FBC1EBC1DBCD0
:100090001CBC17BC16BC1BBC1ABC19BC18BC12BCBF
:1000A00015BC14BC13BC19BE15BE14BE1AB880E82A
:1000B00088B910BE16B81DB816BE20917000909178
:1000C0007600509175004091740030917300E7EF15
:1000D000CE2E7BEFD72E6DEFE62E02E088E0F82ED5
:1000E0001EEFB1E0A4E060ED77E0C5BA83B3807F96
:1000F000803E11F42AE00BC0803D11F42BE007C0D4
:10010000803B11F42CE003C0803709F42DE0D5BA10
:1001100083B3807F803E11F429E00BC0803D11F451
:1001200026E007C0803B11F423E003C0803709F4C8
:100130002EE0E5BA83B3807F803E11F428E00BC047
:10014000803D11F425E007C0803B11F422E003C09C
:10015000803709F420E015BB83B3807F803E11F423
:1001600027E00BC0803D11F424E007C0803B11F470
:1001700021E003C0803709F42FE0E22FF0E0E05ADD
:10018000FF4FE081E31719F4342F452F592FB8BBE7
:100190008E2F80958BBBCB010197F1F708BB832F86
:1001A00080958BBBCB010197F1F7A8BB842F80957D
:1001B0008BBBCB010197F1F7F8BA852F80958BBBEC
:1001C000CB010197F1F7952F542F432F3E2F8DCF61
:0401D000F894FFCFD1
:1001D4003F065B4F666D7D077F6F777C395E797173
:00000001FF
