S00C000063616C632E7372656385
S11300000C942A000C9447000C9447000C9447006D
S11300100C9447000C9447000C9447000C94470040
S11300200C9447000C9447000C9447000C94470030
S11300300C9447000C9447000C9447000C94470020
S11300400C9447000C9447000C9447000C94470010
S11300500C94470011241FBECFE5D8E0DEBFCDBF0E
S113006010E0A0E6B0E0EEE7FFE002C005900D92DC
S1130070A63AB107D9F720E0A6EAB0E001C01D9284
S1130080A73CB207E1F70E94A4030C94BD070C94AB
S1130090000080E02FEF2BBB811102C0D89808C06C
S11300A0813011F4D99807C0823011F4DA9803C072
S11300B0833009F4DB9899B3907F903F29F029B3FA
S11300C0207F203FE1F704C08F5F843021F754C0C4
S11300D0843009F453C08130C9F028F0823041F1F2
S11300E08330C1F14DC0903B69F018F4903761F052
S11300F007C0903D09F446C0903E11F487E008958E
S113010080E0089589E008958AE00895903B61F0C5
S113011018F4903759F006C0903DB1F1903E11F4B7
S113012084E0089580E0089586E008958BE00895C2
S1130130903B61F018F4903759F006C0903D31F1CE
S1130140903E11F481E0089580E0089583E00895DD
S11301508CE00895903B61F018F4903759F006C094
S1130160903DB1F0903E11F48FE0089580E0089541
S11301708EE008958DE0089580E0089580E008956C
S113018080E0089588E0089585E0089582E0089568
S113019080E3089580FF02C0C09A01C0C09881FF27
S11301A002C0C19A01C0C19882FF02C0C29A01C0B4
S11301B0C29883FF02C0C39A0895C3980895811119
S11301C002C0C5980895813009F4C59A0895C49A67
S11301D087EC90E00197F1F700C00000C4988FEC21
S11301E097E00197F1F700C00000089587B38F638B
S11301F087BB0895CF93C82F80E00E94DF008C2F27
S11302000E94CA000E94E700CF9108950E94F60060
S113021080E00E94FA0082E00E94FA0082E00E94DC
S1130220FA0088E00E94FA0080E00E94FA008CE064
S11302300E94FA0080E00E94FA0086E00E94FA0020
S11302400895CF93C82F81E00E94DF008C2F829500
S11302508F700E94CA000E94E7008C2F8F700E944A
S1130260CA000E94E700CF910895CF93C62F811151
S113027007C088E00E94FA008C2F0E94FA0008C090
S1130280813031F48CE00E94FA008C2F0E94FA0035
S1130290CF91089580E00E94FA0081E00E94FA0064
S11302A080E00E94FA0082E00E94FA000895CF9351
S11302B0DF93EA010E9435018881882331F0219679
S11302C00E94210189918111FBCFDF91CF91089583
S11302D0823539F481E00E94FA0088E00E94FA0035
S11302E008958C3431F481E00E94FA008CE00E947D
S11302F0FA0008958FE08ABB0E9406010895809158
S1130300BD009091BE008D30910571F41092BE0035
S11303101092BD0081E090E09093BC008093BB00FC
S11303208BE28093BA0008958C30910571F4109299
S1130330BE001092BD0082E090E09093BC008093D8
S1130340BB008DE28093BA0008958B30910571F45F
S11303501092BE001092BD0083E090E09093BC0028
S11303608093BB0088E78093BA0008958A30910592
S113037071F41092BE001092BD0084E090E090935E
S1130380BC008093BB008FE28093BA0008958E3046
S1130390910559F41092BE001092BD0085E090E0E2
S11303A09093BC008093BB0008958033910529F499
S11303B01092BE001092BD0008950F9711F510928F
S11303C0C3001092C4001092C5001092C60010928F
S11303D0BF001092C0001092C1001092C20010928F
S11303E0B6001092B7001092B8001092B9001092A3
S11303F0BC001092BB001092BE001092BD000E947F
S11304004A010895CF92DF92EF92FF920F931F93C8
S11304108091BB009091BC00009709F048C0809186
S1130420C3009091C400A091C500B091C600880F8C
S1130430991FAA1FBB1FAC01BD01440F551F661FA6
S1130440771F440F551F661F771F840F951FA61F24
S1130450B71F2091BD003091BE00820F931FA11DD4
S1130460B11D8093C3009093C400A093C500B093C2
S1130470C600BF93AF939F938F9386E690E09F93BC
S11304808F9386EA90E09F938F930E94EC0446EA50
S113049050E060E080E00E9457010DB71EB7085F8E
S11304A01F4F0FB6F8941EBF0FBE0DBF34C19C0181
S11304B0215031092430310508F058C08091BF0023
S11304C09091C000A091C100B091C200880F991F03
S11304D0AA1FBB1FAC01BD01440F551F661F771F28
S11304E0440F551F661F771F840F951FA61FB71F44
S11304F02091BD003091BE00820F931FA11DB11D3C
S11305008093BF009093C000A093C100B093C20039
S1130510BF93AF939F938F938091BA001F928F9351
S11305208091C6008F938091C5008F938091C40001
S11305308F938091C3008F9380E690E09F938F9375
S113054086EA90E09F938F930E94EC0446EA50E081
S113055060E080E00E9457012DB73EB7225F3F4F15
S11305600FB6F8943EBF0FBE2DBFD5C0059709F056
S1130570D2C08091BA008B3219F54091C3005091DA
S1130580C4006091C5007091C6008091BF00909135
S1130590C000A091C100B091C2008A019B01080F64
S11305A0191F2A1F3B1FC901B8010E94360460931A
S11305B0B6007093B7008093B8009093B9006AC0F6
S11305C08D3219F54091C3005091C4006091C5006B
S11305D07091C6008091BF009091C000A091C100AD
S11305E0B091C2008A019B01081B190B2A0B3B0B1B
S11305F0C901B8010E9436046093B6007093B70035
S11306008093B8009093B90045C08837E9F42091ED
S1130610C3003091C4004091C5005091C600609160
S1130620BF007091C0008091C1009091C2000E94EF
S1130630C2040E9436046093B6007093B70080939E
S1130640B8009093B90026C08F3221F56091C300A1
S11306507091C4008091C5009091C6000E94360438
S11306606B017C016091BF007091C0008091C1005A
S11306709091C2000E9436049B01AC01C701B601EF
S11306800E94CC036093B6007093B7008093B800C7
S11306909093B9008091B9008F938091B8008F93A3
S11306A08091B7008F938091B6008F938BE690E092
S11306B09F938F9386EA90E09F938F930E94EC041C
S11306C046EA50E060E081E00E9457011092C300C6
S11306D01092C4001092C5001092C6001092BF0080
S11306E01092C0001092C1001092C2001092B60085
S11306F01092B7001092B8001092B9001092BC008A
S11307001092BB002DB73EB7285F3F4F0FB6F89449
S11307103EBF0FBE2DBF1F910F91FF90EF90DF9052
S1130720CF9008950E94490090E09093BE0080937A
S1130730BD00892B41F00E947F010E9402021092A9
S1130740BE001092BD0008950E947A0141E750E076
S113075060E080E00E94570145E950E064E081E0F8
S11307600E9457012FEF80E792E021508040904093
S1130770E1F700C00000C9E1D0E08FE19EE40197F9
S1130780F1F700C000008CE40E94680121972097D3
S1130790A1F70E949203FDCF0CD0BAC0B2D040F0B2
S11307A0A9D030F021F45F3F19F09BC05111E4C08F
S11307B09EC0BFD098F39923C9F35523B1F3951B79
S11307C0550BBB27AA2762177307840738F09F5F6E
S11307D05F4F220F331F441FAA1FA9F333D00E2EDD
S11307E03AF0E0E830D091505040E695001CCAF74A
S11307F029D0FE2F27D0660F771F881FBB1F26170F
S113080037074807AB07B0E809F0BB0B802DBF01E1
S1130810FF2793585F4F2AF09E3F510568F061C04F
S1130820ABC05F3FECF3983EDCF386957795679514
S1130830B795F7959F5FC9F7880F911D9695879592
S113084097F90895E1E0660F771F881FBB1F6217B1
S113085073078407BA0720F0621B730B840BBA0B6F
S1130860EE1F88F7E0950895E89409C097FB3EF4DD
S113087090958095709561957F4F8F4F9F4F9923E9
S1130880A9F0F92F96E9BB279395F6958795779567
S11308906795B795F111F8CFFAF4BB0F11F460FF27
S11308A01BC06F5F7F4F8F4F9F4F16C0882311F07F
S11308B096E911C0772321F09EE8872F762F05C093
S11308C0662371F096E8862F70E060E02AF09A952E
S11308D0660F771F881FDAF7880F9695879597F923
S11308E0089597F99F6780E870E060E008959FEFAE
S11308F080EC089500240A941616170618060906B3
S1130900089500240A941216130614060506089581
S1130910092E0394000C11F4882352F0BB0F40F409
S1130920BF2B11F460FF04C06F5F7F4F8F4F9F4F49
S1130930089557FD9058440F551F59F05F3F71F0CB
S11309404795880F97FB991F61F09F3F79F0879532
S11309500895121613061406551FF2CF4695F1DFBB
S113096008C0161617061806991FF1CF869571054B
S1130970610508940895E894BB2766277727CB017F
S113098097F90895DB018F939F930E94D204BF913E
S1130990AF91A29F800D911DA39F900DB29F900DCA
S11309A0112408950E94DD04A59F900DB49F900D1D
S11309B0A49F800D911D11240895A29FB001B39F9F
S11309C0C001A39F700D811D1124911DB29F700D54
S11309D0811D1124911D0895AEE0B0E0E2EFF4E032
S11309E00C9494070D891E8986E08C831A830983ED
S11309F08FEF9FE79E838D83AE01475E5F4F6F89C4
S1130A00788DCE0101960E940E05EF81F885E00FE6
S1130A10F11F10822E96E4E00C94B007ACE0B0E035
S1130A20E4E1F5E00C9486077C016B018A01FC018A
S1130A3017821682838181FFBDC1CE0101964C01CC
S1130A40F7019381F60193FD859193FF81916F01E5
S1130A50882309F4ABC1853239F493FD859193FF62
S1130A6081916F01853229F4B70190E00E94F60666
S1130A70E7CF512C312C20E02032A0F48B3269F0E6
S1130A8030F4803259F0833269F420612CC08D3205
S1130A9039F0803339F4216026C02260246023C0F9
S1130AA0286021C027FD27C030ED380F3A3078F494
S1130AB026FF06C0FAE05F9E300D1124532E13C0AA
S1130AC08AE0389E300D1124332E20620CC08E3201
S1130AD021F426FD6BC1206406C08C3611F4206815
S1130AE002C0883641F4F60193FD859193FF81910C
S1130AF06F018111C1CF982F9F7D9554933028F4B5
S1130B000C5F1F4FFFE3F9830DC0833631F0833749
S1130B1071F0833509F05BC022C0F80180818983BC
S1130B200E5F1F4F44244394512C540115C03801C7
S1130B30F2E06F0E711CF801A080B18026FF03C0A3
S1130B40652D70E002C06FEF7FEFC5012C870E9416
S1130B50EB062C0183012C852F77222E17C0380138
S1130B60F2E06F0E711CF801A080B18026FF03C073
S1130B70652D70E002C06FEF7FEFC5012C870E94E6
S1130B80E0062C012C852068222E830123FC1BC047
S1130B90832D90E048165906B0F4B70180E290E046
S1130BA00E94F6063A94F4CFF50127FC859127FEBE
S1130BB081915F01B70190E00E94F60631103A94EA
S1130BC0F1E04F1A51084114510471F7E5C084361D
S1130BD011F0893639F5F80127FF07C0608171816A
S1130BE0828193810C5F1F4F08C0608171818827C7
S1130BF077FD8095982F0E5F1F4F2F76B22E97FFAB
S1130C0009C090958095709561957F4F8F4F9F4F48
S1130C102068B22E2AE030E0A4010E942807A82E02
S1130C20A81844C0853729F42F7EB22E2AE030E07C
S1130C3025C0F22FF97FBF2E8F36C1F018F4883506
S1130C4079F0B4C0803719F0883721F0AFC02F2F66
S1130C502061B22EB4FE0DC08B2D8460B82E09C065
S1130C6024FF0AC09F2F9660B92E06C028E030E00A
S1130C7005C020E130E002C020E132E0F801B7FE17
S1130C8007C060817181828193810C5F1F4F06C010
S1130C906081718180E090E00E5F1F4FA4010E948B
S1130CA02807A82EA818FB2DFF77BF2EB6FE0BC071
S1130CB02B2D2E7FA51450F4B4FE0AC0B2FC08C03C
S1130CC02B2D2E7E05C07A2C2B2D03C07A2C01C02F
S1130CD0752C24FF0DC0FE01EA0DF11D80818033C7
S1130CE011F4297E09C022FF06C07394739404C0D2
S1130CF0822F867809F0739423FD13C020FF06C069
S1130D005A2C731418F4530C5718732C731468F476
S1130D10B70180E290E02C870E94F60673942C853C
S1130D20F5CF731410F4371801C0312C24FF12C00E
S1130D30B70180E390E02C870E94F6062C8522FF01
S1130D4017C021FF03C088E590E002C088E790E067
S1130D50B7010CC0822F867859F021FD02C080E2D1
S1130D6001C08BE227FD8DE2B70190E00E94F606F8
S1130D70A51438F4B70180E390E00E94F6065A9473
S1130D80F7CFAA94F401EA0DF11D8081B70190E038
S1130D900E94F606A110F5CF332009F451CEB70115
S1130DA080E290E00E94F6063A94F6CFF70186813D
S1130DB0978102C08FEF9FEF2C96E2E10C94A2077B
S1130DC0FC010590615070400110D8F78095909512
S1130DD08E0F9F1F0895FC01615070400190011017
S1130DE0D8F7809590958E0F9F1F08950F931F93AA
S1130DF0CF93DF93182F092FEB018B8181FD03C063
S1130E008FEF9FEF20C082FF10C04E815F812C8145
S1130E103D81421753077CF4E881F9819F012F5FDC
S1130E203F4F39832883108306C0E885F985812FD5
S1130E300995892B29F72E813F812F5F3F4F3F83EF
S1130E402E83812F902FDF91CF911F910F910895C1
S1130E50FA01AA27283051F1203181F1E8946F93E7
S1130E606E7F6E5F7F4F8F4F9F4FAF4FB1E03ED08D
S1130E70B4E03CD0670F781F891F9A1FA11D680F2B
S1130E80791F8A1F911DA11D6A0F711D811D911D5E
S1130E90A11D20D009F468943F912AE0269F1124D3
S1130EA03019305D3193DEF6CF010895462F477037
S1130EB0405D4193B3E00FD0C9F7F6CF462F4F7092
S1130EC0405D4A3318F0495D31FD4052419302D0F0
S1130ED0A9F7EACFB4E0A695979587957795679596
S1130EE0BA95C9F700976105710508959B01AC0196
S1130EF00A2E06945795479537952795BA95C9F7BD
S1130F00620F731F841F951FA01D08952F923F9297
S1130F104F925F926F927F928F929F92AF92BF9205
S1130F20CF92DF92EF92FF920F931F93CF93DF93B1
S1130F30CDB7DEB7CA1BDB0B0FB6F894DEBF0FBE0E
S1130F40CDBF09942A88398848885F846E847D845B
S1130F508C849B84AA84B984C884DF80EE80FD805D
S1130F600C811B81AA81B981CE0FD11D0FB6F894D3
S1110F70DEBF0FBECDBFED010895F894FFCF94
S1130F7E25316C69256325316C69003D252E326659
S1130F8E0053494D504C452043414C43554C41541C
S1130F9E4F522020504C45415345205052455353F7
S1130FAE204F4E2000454C454354524F4E4946590E
S1090FBE2E4F5247000013
S9030000FC
