:100000000C94C9000C94E6000C94E6000C94E600F5
:100010000C94E6000C94E6000C94E6000C94E600C8
:100020000C94E6000C94E6000C94E6000C94E600B8
:100030000C94E6000C94E6000C94E6000C94E600A8
:100040000C94E6000C94E6000C94E6000C94E60098
:100050000C94E6006E616E00696E660000407A10D6
:10006000F35A00A0724E18090010A5D4E80000E869
:100070007648170000E40B54020000CA9A3B0000C7
:1000800000E1F505000080969800000040420F0056
:100090000000A08601000000102700000000E80317
:1000A000000000006400000000000A0000000000E2
:1000B0000100000000002C76D888DC674F0823DFA1
:1000C000C1DFAE59E1B1B796E5E3E453C63AE65174
:1000D000997696E8E6C28426EB898C9B62ED407C9B
:1000E0006FFCEFBC9C9F40F2BAA56FA5F490055A37
:1000F0002AF75C936B6CF9676DC11BFCE0E40D475C
:10010000FEF520E6B500D0ED902E0300943577057E
:100110000080841E080000204E0A000000C80C3336
:100120003333330F986E12831141EF8D2114893BC5
:10013000E65516CFFEE6DB18D1844B381BF77C1D45
:10014000901DA4BBE424203284725E228100C9F198
:1001500024ECA1E53D274E414E494E495459494EA4
:1001600046CDCCCC3D0AD7233C17B7D13877CC2B22
:10017000329595E6241FB14F0A000020410000C8C7
:100180004200401C4620BCBE4CCA1B0E5AAEC59D48
:10019000740011241FBECFE5D4E0DEBFCDBF10E058
:1001A000A0E6B0E0E2E8FBE102C005900D92A237C4
:1001B000B107D9F720E0A2E7B0E001C01D92A43753
:1001C000B207E1F70E94EC010C94BF0D0C94000003
:1001D000929A00C092980895CF93C82F662311F089
:1001E000909A01C0909891988C9A8D9A8E9A8F9A35
:1001F0009798969895989498CC230CF4979AC6FD66
:10020000969AC5FD959AC4FD949A0E94E800979825
:10021000969895989498C3FD979AC2FD969AC1FDB9
:10022000959AC0FD949A0E94E800949A959A969A9D
:10023000979ACF910895882311F0909A01C09098D1
:10024000919A8C988D988E988F98929A00C0849BE2
:1002500002C080E101C080E0859980628699806457
:1002600087998068929800C0929A00C084998160B2
:1002700085998260869984608799886092980895AC
:1002800080E00E941B018823DCF388E090E0019766
:10029000F1F780E00E941B010895CF93C82F0E94C0
:1002A000400160E08C2F0E94EC00CF910895611115
:1002B00004C080580E944D01089580540E944D0151
:1002C000089581E00E944D01089582E00E944D0151
:1002D0000895CF93C82F0E944001CA3049F480345A
:1002E00010F080E001C080E480580E944D0104C0FD
:1002F00061E08C2F0E94EC00CF910895CF93DF93A3
:10030000EC012196FC018081882329F00E9469017B
:1003100089918111FBCFDF91CF9108951F93CF93E6
:10032000DF93182F889A899A8A9A8C9A8D9A8E9A36
:100330008F9A80E09AEF0197F1F7959A949A0E942C
:10034000E80080E09EE40197F1F70E94E800C0E039
:10035000D1E0CE010197F1F70E94E800CE010197AC
:10036000F1F794980E94E8002197F1F788E20E9443
:100370004D0188E00E944D0186E00E944D01812FD1
:100380000E944D01DF91CF911F910895CF938CE092
:100390000E948E010E94F8020E9465010E94610184
:1003A000C0E060E08C2F0E9457018FE19EE401972E
:1003B000F1F700C0000080E690E00E947E01CF5F70
:1003C000C03179F78FE19EE40197F1F700C000009A
:1003D0000E946101CF910895CF93DF93CDB7DEB72F
:1003E000C655D1090FB6F894DEBF0FBECDBF8FEF53
:1003F0008ABB80E18BBB0E94C60112E6E12CF12C86
:10040000A12CB12C0F2EFCE6CF2EF0E0DF2EF02D2C
:100410009E012F5D3F4F63963FAF2EAF639733240E
:100420003394212C0E942A03082F8823D9F360E0FB
:100430008A2D0E945701802F0E9469018FE50E943A
:100440006901E1E0F0E0EC0FFD1FEA0DFB1D008308
:100450003FEFA31AB30A802F8B7F8B3241F00D320E
:1004600009F4BFC0083709F4BEC0C70103C0102F8C
:1004700080E090E0E1E1F0E0EC0FFD1FE80FF91FF4
:1004800000837C014FEFE41AF40A0D3359F69C0106
:1004900021503109A21AB30AA5014250510914167C
:1004A00015066CF4FE013196DE01AF5BBF4F5A01B9
:1004B000AE0EBF1E41914D93EA15FB05D9F71216FA
:1004C0001306A4F4FE017296DE01D1965C0121E1CF
:1004D00030E02C0F3D1F820F931F21912D93E817C1
:1004E000F907D9F731E0A31AB10802C0A12CB12C49
:1004F0008FE19EE40197F1F700C00000CE018F5B11
:100500009F4F0E941F0A67966CAF7DAF8EAF9FAF63
:100510006797CE01C1960E941F0A1D32C1F018F4E0
:100520001B3231F040C01F3281F11837F9F03BC067
:100530009B01AC0167966CAD7DAD8EAD9FAD6797AD
:100540000E94CF04562E672E782E892E2CC09B0138
:10055000AC0167966CAD7DAD8EAD9FAD67970E9487
:10056000CE04562E672E782E892E1DC09B01AC011D
:1005700067966CAD7DAD8EAD9FAD67970E94FE0511
:10058000562E672E782E892E0EC09B01AC016796E1
:100590006CAD7DAD8EAD9FAD67970E943B05562E2D
:1005A000672E782E892E8F927F926F925F92DF92C4
:1005B000CF9263969FAD63979F9362962FAD62979C
:1005C0002F930E944D0B61E080E00E945701CE0105
:1005D00081960E947E010FB6F894DEBF0FBECDBF9C
:1005E00021CF102F01C0102F098BE32CF22C1ACF32
:1005F000A09AA19AA29AA39AA498A598A698A79817
:10060000AC9AAD9AAE9AAF9AA89AA99AAA9AAB9ABE
:100610000895811105C0A898A99AAA9AAB9A0EC00C
:10062000813029F4A89AA998AA9AAB9A08958230A1
:1006300029F4A89AA99AAA98AB9A0895833021F42C
:10064000A89AA99AAA9AAB980895A89AA99AAA9A38
:10065000AB9A0895CF9380E00E94090387EA91E660
:100660000197F1F700C0000033B343B393B323B352
:1006700050E04F6D5F6F4095509555954795559556
:100680004795559547955595479555954795440FE9
:10069000551F892F90E08F6B9F6F80959095082E46
:1006A000892F000C881F990B000C881F991F880F39
:1006B000991F880F991F482B592B832F90E08F6E1D
:1006C0009F6F80959095959587959595879595952C
:1006D000879595958795842B952B30E02F673F6FF5
:1006E00020953095220F232F221F330B220F331F0B
:1006F000220F331F220F331F822B932B8230910541
:1007000061F01CF4019739F00EC08430910539F086
:10071000089739F008C0CBE207C0CDE205C0C8E7B2
:1007200003C0CFE201C0C0E081E00E94090387EA74
:1007300091E60197F1F700C0000033B343B393B3E0
:1007400023B350E04F6D5F6F409550955595479599
:100750005595479555954795559547955595479581
:10076000440F551F892F90E08F6B9F6F8095909558
:10077000082E892F000C881F990B000C881F991FC9
:10078000880F991F880F991F482B592B832F90E0B2
:100790008F6E9F6F80959095959587959595879588
:1007A0009595879595958795842B952B30E02F67A8
:1007B0003F6F20953095220F232F221F330B220FDE
:1007C000331F220F331F220F331F822B932B8230B4
:1007D000910561F01CF4019739F00DC0843091054A
:1007E00039F0089739F007C0CDE305C0C9E303C06D
:1007F000C6E301C0C3E382E00E94090387EA91E6F1
:100800000197F1F700C0000033B343B393B323B3B0
:1008100050E04F6D5F6F40955095559547955595B4
:100820004795559547955595479555954795440F47
:10083000551F892F90E08F6B9F6F80959095082EA4
:10084000892F000C881F990B000C881F991F880F97
:10085000991F880F991F482B592B832F90E08F6E7B
:100860009F6F80959095959587959595879595958A
:10087000879595958795842B952B30E02F673F6F53
:1008800020953095220F232F221F330B220F331F69
:10089000220F331F220F331F822B932B823091059F
:1008A00061F01CF4019739F00DC08430910539F0E6
:1008B000089739F007C0C0E305C0C8E303C0C5E32B
:1008C00001C0C2E383E00E94090387EA91E6019731
:1008D000F1F700C0000033B343B393B323B350E048
:1008E0004F6D5F6F40955095559547955595479538
:1008F000559547955595479555954795440F551FDF
:10090000892F90E08F6B9F6F80959095082E892F8F
:10091000000C881F990B000C881F991F880F991FC6
:10092000880F991F482B592B832F90E08F6E9F6F54
:1009300080959095959587959595879595958795AB
:1009400095958795842B952B30E02F673F6F2095E9
:100950003095220F232F221F330B220F331F220F1C
:10096000331F220F331F822B932B8230910561F0AE
:100970001CF4019739F00DC08430910539F00897C7
:1009800039F007C0CEE205C0C7E303C0C4E301C02D
:10099000C1E30E9425038C2FCF9108955058BB27A7
:1009A000AA270E94E6040C94C4050E94B60538F0FC
:1009B0000E94BD0520F039F49F3F19F426F40C94F1
:1009C000B3050EF4E095E7FB0C94AD05E92F0E940A
:1009D000D50558F3BA17620773078407950720F007
:1009E00079F4A6F50C94F7050EF4E0950B2EBA2FCA
:1009F000A02D0B01B90190010C01CA01A001112425
:100A0000FF27591B99F0593F50F4503E68F11A16D0
:100A1000F040A22F232F342F4427585FF3CF469561
:100A200037952795A795F0405395C9F77EF41F1683
:100A3000BA0B620B730B840BBAF09150A1F0FF0F4D
:100A4000BB1F661F771F881FC2F70EC0BA0F621F39
:100A5000731F841F48F4879577956795B795F79529
:100A60009E3F08F0B0CF9395880F08F09927EE0FBE
:100A70009795879508950E944F050C94C4050E9490
:100A8000BD0558F00E94B60540F029F45F3F29F0FB
:100A90000C94AD0551110C94F8050C94B3050E940B
:100AA000D50568F39923B1F3552391F3951B550BA5
:100AB000BB27AA2762177307840738F09F5F5F4F31
:100AC000220F331F441FAA1FA9F335D00E2E3AF070
:100AD000E0E832D091505040E695001CCAF72BD088
:100AE000FE2F29D0660F771F881FBB1F26173707D9
:100AF0004807AB07B0E809F0BB0B802DBF01FF270B
:100B000093585F4F3AF09E3F510578F00C94AD0535
:100B10000C94F8055F3FE4F3983ED4F386957795FF
:100B20006795B795F7959F5FC9F7880F911D9695C3
:100B3000879597F90895E1E0660F771F881FBB1F1F
:100B4000621773078407BA0720F0621B730B840BCC
:100B5000BA0BEE1F88F7E095089597F99F6780E834
:100B600070E060E008959FEF80EC089500240A94FF
:100B70001616170618060906089500240A94121678
:100B80001306140605060895092E0394000C11F4AB
:100B9000882352F0BB0F40F4BF2B11F460FF04C058
:100BA0006F5F7F4F8F4F9F4F089557FD9058440FB1
:100BB000551F59F05F3F71F04795880F97FB991FBC
:100BC00061F09F3F79F08795089512161306140679
:100BD000551FF2CF4695F1DF08C016161706180606
:100BE000991FF1CF86957105610508940895E894E1
:100BF000BB2766277727CB0197F908950E94110636
:100C00000C94C4050E94B60538F00E94BD0520F082
:100C1000952311F00C94AD050C94B30511240C949C
:100C2000F8050E94D50570F3959FC1F3950F50E02C
:100C3000551F629FF001729FBB27F00DB11D639F8E
:100C4000AA27F00DB11DAA1F649F6627B00DA11D34
:100C5000661F829F2227B00DA11D621F739FB00DDA
:100C6000A11D621F839FA00D611D221F749F33274A
:100C7000A00D611D231F849F600D211D822F762FE3
:100C80006A2F11249F5750409AF0F1F088234AF0C0
:100C9000EE0FFF1FBB1F661F771F881F915050402C
:100CA000A9F79E3F510580F00C94AD050C94F80512
:100CB0005F3FE4F3983ED4F3869577956795B795B3
:100CC000F795E7959F5FC1F7FE2B880F911D9695CD
:100CD000879597F90895A0E1B0E0E1E7F6E00C947C
:100CE000E8097C011B016A01FC01178216828381DD
:100CF00081FF44C39E012F5F3F4F3901F70193816C
:100D0000F10193FD859193FF81911F01882309F4DF
:100D100031C3853239F493FD859193FF81911F0191
:100D2000853239F4B70190E00E94110B560165013C
:100D3000E5CF10E0512C912CFFE1F915D8F08B3262
:100D400079F038F4803279F08332A1F4F92DF06132
:100D50002EC08D3261F0803369F4292D21602DC0C1
:100D6000392D3260932E892D8460982E2AC0E92D6A
:100D7000E86015C097FC2DC020ED280F2A3088F4BC
:100D800096FE06C03AE0139F200D1124122F19C0C1
:100D90008AE0589E200D1124522EE92DE0629E2EED
:100DA00010C08E3231F496FCE5C2F92DF0649F2E0E
:100DB00008C08C3621F4292D2068922E02C0883676
:100DC00041F4F10193FD859193FF81911F01811100
:100DD000B3CF9BEB980F933020F4992D9061805EF8
:100DE00007C09BE9980F933008F066C1992D9F7E4C
:100DF00096FF16E09F73992E853619F49064992E0C
:100E000008C0863621F4392F3068932E02C01111A4
:100E1000115097FE07C01C3350F444244394410EF4
:100E200027E00BC0183038F027E017E005C027E0B6
:100E30009CE3492E02C0212F412C560184E0A80ECC
:100E4000B11CF6016081718182819381042DA3011F
:100E50000E94230A6C01F981FC87F0FF02C0F3FFB6
:100E600006C091FC06C092FE06C000E205C00DE27D
:100E700003C00BE201C000E08C858C7019F00111F9
:100E80005AC29BC297FE10C04C0CFC85F4FF04C0F4
:100E90008A81813309F44A94141474F528E02415E6
:100EA00078F588E0482E2CC096FC2AC0812F90E06F
:100EB0008C159D059CF03CEFC3163FEFD30674F0F4
:100EC000892D8068982E0AC0E2E0F0E0EC0FFD1F4B
:100ED000E10FF11D8081803319F411501111F4CF0D
:100EE00097FE0EC044244394410E812F90E0C81613
:100EF000D9062CF41C1904C04424439401C010E00A
:100F000097FE06C01C141D0434F4C601019605C0EA
:100F100085E090E002C081E090E00111019611238C
:100F200031F0212F30E02F5F3F4F820F931F252D8F
:100F300030E08217930714F4581A01C0512C892D00
:100F4000897049F4552039F0B70180E290E00E94A1
:100F5000110B5A94F7CF002329F0B701802F90E0AE
:100F60000E94110B93FC09C0552039F0B70180E3B2
:100F700090E00E94110B5A94F7CF97FE4CC04601A7
:100F8000D7FE02C0812C912CC60188199909F30162
:100F9000E80FF91FFE87ED87960124193109388B78
:100FA0002F87012F10E01195019511093FEF83164E
:100FB000930629F4B7018EE290E00E94110BC81449
:100FC000D9044CF08F8598898815990524F4ED850E
:100FD000FE85818101C080E3F1E08F1A91082D85A3
:100FE0003E852F5F3F4F3E872D87801691062CF060
:100FF000B70190E00E94110BD9CFC814D90441F475
:101000009A81963320F4953319F43C8534FF81E3BB
:10101000B70190E04EC08A81813319F09C859F7E94
:101020009C87B70190E00E94110B111105C094FC40
:1010300018C085E690E017C0B7018EE290E00E94EC
:10104000110B1E5F82E001E0080FF301E80FF11DB4
:101050008081B70190E00E94110B802F0113F3CF24
:10106000E6CF85E490E0B7010E94110BD7FC06C0E3
:10107000C114D10441F4EC85E4FF05C0D194C194BE
:10108000D1088DE201C08BE2B70190E00E94110B04
:1010900080E32AE0C216D1042CF08F5FFAE0CF1A69
:1010A000D108F7CFB70190E00E94110BB701C6013C
:1010B000C0960E94110B54C1833631F0833779F00A
:1010C000833509F056C020C0560132E0A30EB11C92
:1010D000F6018081898301E010E0630112C05601AE
:1010E000F2E0AF0EB11CF601C080D18096FE03C0C5
:1010F000612F70E002C06FEF7FEFC6010E94060B08
:101100008C01F92DFF7714C0560122E0A20EB11C0C
:10111000F601C080D18096FE03C0612F70E002C04E
:101120006FEF7FEFC6010E94FB0A8C01F92DF0687A
:101130009F2EF3FD1AC0852D90E008171907A8F41B
:10114000B70180E290E00E94110B5A94F4CFF601AF
:1011500097FC859197FE81916F01B70190E00E9405
:10116000110B51105A94015011090115110579F70D
:10117000F7C0843611F0893661F5560197FE09C033
:1011800024E0A20EB11CF6016081718182819381FD
:101190000AC0F2E0AF0EB11CF60160817181072E2A
:1011A000000C880B990BF92DFF769F2E97FF09C035
:1011B00090958095709561957F4F8F4F9F4FF06808
:1011C0009F2E2AE030E0A3010E946F0BC82EC618A4
:1011D0003FC0092D853721F40F7E2AE030E01DC085
:1011E000097F8F3691F018F4883559F0C3C08037E5
:1011F00019F0883711F0BEC0006104FF09C0046017
:1012000007C094FE08C0066006C028E030E005C0B4
:1012100020E130E002C020E132E0560107FF09C0C2
:1012200084E0A80EB11CF6016081718182819381F6
:1012300008C0F2E0AF0EB11CF6016081718180E060
:1012400090E0A3010E946F0BC82EC6180F77902E56
:1012500096FE0BC0092D0E7FC11650F494FE0AC0F5
:1012600092FC08C0092D0E7E05C0DC2C092D03C0A0
:10127000DC2C01C0D12E04FF0DC0FE01EC0DF11DD0
:101280008081803311F4097E09C002FF06C0D39427
:10129000D39404C0802F867809F0D39403FD11C045
:1012A00000FF06C01C2DD51480F4150D1D190DC0AE
:1012B000D51458F4B70180E290E00E94110BD3944A
:1012C000F7CFD51410F45D1801C0512C04FF10C0E5
:1012D000B70180E390E00E94110B02FF17C001FDEF
:1012E00003C088E790E002C088E590E0B7010CC039
:1012F000802F867859F001FF02C08BE201C080E2A6
:1013000007FD8DE2B70190E00E94110BC11638F481
:10131000B70180E390E00E94110B1150F7CFCA94FF
:10132000F301EC0DF11D8081B70190E00E94110BDB
:10133000C110F5CF15C0F4E0F51560F584E0581A3A
:1013400093FE1FC0011127C02C8523FF2AC004E58E
:1013500010E0392D3071932EF8018491811124C051
:10136000552009F4E4CCB70180E290E00E94110B13
:101370005A94F6CFF7018681978126C08FEF9FEFB1
:1013800023C0B70180E290E00E94110B5A945110E3
:10139000F8CFD8CF512CB701802F90E00E94110BCD
:1013A000D3CF08E510E0D5CF91108052B70190E07F
:1013B0000E94110B0F5F1F4FCFCF23E0251510F4B4
:1013C00083E0BDCF512CC0CF6096E2E10C94040ABB
:1013D0002F923F924F925F926F927F928F929F9245
:1013E000AF92BF92CF92DF92EF92FF920F931F9333
:1013F000CF93DF93CDB7DEB7CA1BDB0B0FB6F894E4
:10140000DEBF0FBECDBF09942A88398848885F8423
:101410006E847D848C849B84AA84B984C884DF8094
:10142000EE80FD800C811B81AA81B981CE0FD11D78
:101430000FB6F894DEBF0FBECDBFED01089566274D
:1014400077270C94CD0B283008F027E03327DA01FA
:10145000990F311D87FD916000966105710539F482
:1014600032602E5F3D9330E32A95E1F708959F3F68
:1014700030F080387105610509F03C5F3C5F3D93B9
:10148000913008F08068911DDF93CF931F930F93E5
:10149000FF92EF92192F987F9695E92F9695969542
:1014A000E90FFF27EA54FF4F99273327EE24FF2443
:1014B000A701E70105900894079428F4360FE71E6A
:1014C000F81E491F511D660F771F881F991F06942C
:1014D000A1F70590079428F4E70EF81E491F561F40
:1014E000C11D770F881F991F661F0694A1F70590ED
:1014F000079428F4F80E491F561FC71FD11D880FE7
:10150000991F661F771F0694A1F70590079420F492
:10151000490F561FC71FD81F990F661F771F881FB7
:101520000694A9F784911095177041F0D695C79548
:1015300057954795F794E7941A95C1F7ECE5F0E0D5
:1015400068941590159135916591959105907FE27C
:101550007395E118F10A430B560BC90BD009C0F77C
:10156000E10CF11E431F561FC91FD01D7EF47033BE
:1015700011F48A95E6CFE894015030F0080F0AF490
:101580000027021708F4202F2395022F7A3328F022
:1015900079E37D932A95E9F710C07D932A9589F622
:1015A000069497956795379517951794E118F10A62
:1015B000430B560BC90BD00998F023957E91739578
:1015C0007A3308F070E37C932013B8F77E91706152
:1015D0007D9330F0839571E37D9370E32A95E1F775
:1015E0001124EF90FF900F911F91CF91DF919927D8
:1015F00087FD90950895FC010590615070400110A1
:10160000D8F7809590958E0F9F1F0895FC0161502B
:10161000704001900110D8F7809590958E0F9F1F14
:1016200008950F931F93CF93DF93FB01238121FD37
:1016300003C08FEF9FEF2CC022FF16C04681578159
:10164000248135814217530744F4A081B1819D0163
:101650002F5F3F4F318320838C93268137812F5F0B
:101660003F4F3783268314C08B01EC01FB010084BC
:10167000F185E02D0995892BE1F6D80116968D911B
:101680009C911797019617969C938E931697CE016F
:10169000DF91CF911F910F910895AEE0B0E0E3E5A7
:1016A000FBE00C94F6090D891E8986E08C831A8371
:1016B00009838FEF9FE79E838D83AE01475E5F4F67
:1016C0006F89788DCE0101960E946B06EF81F885B7
:1016D000E00FF11F10822E96E4E00C94120AFA013A
:1016E000AA27283051F1203181F1E8946F936E7F61
:1016F0006E5F7F4F8F4F9F4FAF4FB1E03ED0B4E052
:101700003CD0670F781F891F9A1FA11D680F791F92
:101710008A1F911DA11D6A0F711D811D911DA11DA3
:1017200020D009F468943F912AE0269F11243019B3
:10173000305D3193DEF6CF010895462F4770405D4E
:101740004193B3E00FD0C9F7F6CF462F4F70405DFD
:101750004A3318F0495D31FD4052419302D0A9F758
:10176000EACFB4E0A6959795879577956795BA9552
:10177000C9F700976105710508959B01AC010A2E18
:1017800006945795479537952795BA95C9F7620FEF
:10179000731F841F951FA01D0895A0E0B0E0E3ED26
:1017A000FBE00C94EE09EC016B016115710519F079
:1017B000FB01918380837E01FFEFEF1AFF0A08810E
:1017C000802F90E00E941B0D892B11F0E701F3CFD1
:1017D0000D3239F47E0182E0E80EF11C098111E03E
:1017E00008C00B3229F47E0192E0E90EF11C098158
:1017F00010E0E701219743E050E06EE571E0CE0193
:101800000E94240D892BC1F4239645E050E069E540
:1018100071E0CE010E94240D892B09F42596C11494
:10182000D10419F0F601D183C0831111F6C060E034
:1018300070E080E89FE7FAC043E050E066E571E0C1
:10184000CE010E94240D892B59F4C114D10409F44E
:10185000E9C0F2E0EF0EF11CF601F182E082E2C095
:1018600020E030E0A901C0E0D0E0F70180EDA82E33
:10187000A00E89E08A1530F1912F9260B92E812F48
:10188000887012FF04C0811124C0219622C08111EA
:101890002197A5E0B0E00E94A50DDC01CB01880FE7
:1018A000991FAA1FBB1F9C01AD012A0D311D411DAF
:1018B000511D283989E93807480789E1580748F058
:1018C000166006C09EEFA9120AC013FD40C0186042
:1018D000B12E8FEFE81AF80A00811B2DC6CF802F9A
:1018E0008F7D8534A1F580818D3211F4106106C0A1
:1018F0008B3221F0319661E070E004C08181329634
:1019000062E070E080538A3018F0E61BF70B1FC0CE
:1019100060E070E060389CE079075CF4DB01AA0FBE
:10192000BB1FAA0FBB1F6A0F7B1F660F771F680FB5
:10193000711D3196DF0111978C9180538A3050F3DD
:1019400014FF03C0719561957109C60FD71F11FF70
:1019500008C0C114D10429F0CF010197F601918389
:101960008083CA01B9010E94410D212F23702330C9
:1019700019F04B015C0106C04B015C01B7FAB09451
:10198000B7F8B09420E030E0A901C501B4010E948D
:101990003C0D882309F43EC0D7FF06C0D195C19500
:1019A000D10905E711E002C00DE811E06801F8E196
:1019B000CF1AD10890E2E92EF12CCE15DF0574F094
:1019C000F8012591359145915491C501B4010E94CA
:1019D000FE054B015C01CE19DF09EFCF0450110960
:1019E000F594E7940C151D0541F78A2D880F8B2D72
:1019F000881F8F3F49F020E030E0A901C501B40104
:101A00000E943C0D811106C082E290E09093730029
:101A100080937200C501B40109C060E070E080E805
:101A20009FEF04C060E070E080EC9FE7CDB7DEB7C9
:101A3000ECE00C940A0A91110C94A20D803219F07A
:101A400089508550C8F70895FB01DC014150504092
:101A500088F08D9181341CF08B350CF4805E65919B
:101A600061341CF06B350CF4605E861B611171F300
:101A7000990B0895881BFCCF0E947E0D08F481E02D
:101A80000895E89409C097FB3EF490958095709571
:101A900061957F4F8F4F9F4F9923A9F0F92F96E9BA
:101AA000BB279395F695879577956795B795F1112F
:101AB000F8CFFAF4BB0F11F460FF1BC06F5F7F4FCC
:101AC0008F4F9F4F16C0882311F096E911C07723DE
:101AD00021F09EE8872F762F05C0662371F096E8E7
:101AE000862F70E060E02AF09A95660F771F881FB6
:101AF000DAF7880F9695879597F90895990F00085A
:101B0000550FAA0BE0E8FEEF16161706E807F907CF
:101B1000C0F012161306E407F50798F0621B730B6A
:101B2000840B950B39F40A2661F0232B242B252BEB
:101B300021F408950A2609F4A140A6958FEF811D8E
:101B4000811D08959927882708950E94B00DA59FAB
:101B5000900DB49F900DA49F800D911D11240895A8
:101B6000A29FB001B39FC001A39F700D811D1124DE
:101B7000911DB29F700D811D1124911D0895F8943F
:021B8000FFCF95
:101B82002043414C43554C41544F5200252E32665E
:021B9200000051
:00000001FF
