:020000020000FC
:1000000000C0F8940FE50DBF02E00EBF789400C069
:1000100000EF04BB0FE005BB00E801BB0FEF0ABB1C
:1000200000270BBB112700C0002702BB03B30F3012
:1000300009F4FACF0FEF02BB2ED003B30F3009F44F
:10004000F3CF112710E0989B11E0999B12E09A9B47
:1000500014E09B9B18E01030D9F22AD003B3003F84
:1000600009F4D6CF00E19C9B07C09D9B07C09E9BD7
:1000700008C09F9B09C0CCCF100F09C000E2100F31
:1000800006C000E4100F03C000E8100F00C01BBB47
:10009000112713D0C9CFF8940F931F9314E00FEFDB
:1000A0000A95F1F71A95D9F778941F910F91089551
:1000B0000FE004BB00EF05BB089500EF04BB0FE0A9
:0400C00005BB0895DF
:00000001FF
