:1000000010C022C021C020C01FC01EC01DC01CC007
:100010001BC01AC019C018C017C016C015C014C024
:1000200013C011241FBECFE5D2E0DEBFCDBF10E06C
:10003000A0E6B0E0E8E5F1E002C005900D92A83737
:10004000B107D9F702D086C0DBCFAF92BF92CF9273
:10005000DF92FF920F931F93DF93CF93CDB7DEB75D
:1000600068970FB6F894DEBF0FBECDBF8FEF8ABB87
:1000700084BBDE011196E0E7F0E088E001900D928C
:100080008150E1F7DE011996E0E6F0E080E10190B1
:100090000D928150E1F760E070E040E050E05E01D9
:1000A0000894A11CB11C8E01075F1F4F84EFC82E5E
:1000B00081E0D82E1EC081918BBB8D919D91062E23
:1000C00002C0959587950A94E2F7809585BBC60195
:1000D0000197F1F7E017F10771F72F5F3F4F2832D3
:1000E000310519F0F501D801E6CF6F5F7F4F4F5F03
:1000F0005F4F483051053CF520E030E0F3CF81916F
:100100008BBB8D919D910F2C02C0880F991F0A9473
:10011000E2F7809585BBC6010197F1F7E017F1077B
:1001200071F72F5F3F4F2832310519F0F501D801E3
:10013000E6CF4F5F5F4F4830510539F4685070404B
:1001400040E050E0D6CF40E050E0F62EF41A20E038
:0801500030E0ECCFF894FFCF82
:10015800FF00FF00C000F800F800C000FF00FF002B
:08016800010204081020408090
:00000001FF
