:1000000014C023C022C021C020C01FC01EC01DC0FC
:100010001CC01BC01AC019C018C017C016C015C01C
:1000200014C013C012C011C010C011241FBECFE5F0
:10003000D2E0DEBFCDBF10E0A0E6B0E001C01D926F
:10004000A636B107E1F702D06AC0DACFCF93DF93CB
:100050001ABA1BBA17BA18BA14BA15BA11BA12BA20
:1000600013BE12BE1CBE1FBC1EBC1DBC1CBC17BCDC
:1000700016BC1BBC1ABC19BC18BC12BC15BC14BCE9
:1000800013BC19BE15BE14BE1BB888E18AB986E838
:1000900080BD10BC87E489B980E888B910BE16B865
:1000A0001DB816BEC4E6D0E0609162007091630096
:1000B0008DE490E008D088E893E1FE013197F1F7F4
:1000C0000197D9F7F1CF0F931F93CF93DF938C0153
:1000D000EB018B8181FF1BC082FF0DC02E813F8110
:1000E0008C819D812817390764F4E881F981019397
:1000F000F983E88306C0E885F985802F0995892B67
:1001000031F48E819F8101969F838E8302C00FEF11
:100110001FEFC801DF91CF911F910F910895F894BF
:02012000FFCF0F
:00000001FF
