:020000020000FC
:1000000002C026C031C000E4002E502E06E7402E6C
:100010000CE5302E00E3202E0FE5102E0FE50DBF6E
:1000200002E00EBF0FEF04BB0ABB02BB0FE005BF2F
:1000300000EC0BBF7894FF27E5E000E205BB1081E0
:100040001BBB1ED0FBBB03B30695EA95BAF7F4CFF2
:1000500000E4002E502E06E7102E0CE5202E00E3C3
:10006000302E0FE5402E18950FE3502E08E3402E5A
:1000700008E3302E09E7202E06E7102E00E418953D
:100080001BE023ED2A95F1F71A95D9F711E01A959F
:06009000F1F700000895E5
:00000001FF
