:1000000032C04CC04BC04AC049C048C047C046C0BF
:1000100045C044C043C042C041C040C03FC03EC0D4
:100020003DC03CC03BC03AC039C0494E46494E492C
:1000300054594E414ECDCCCC3D0AD7233C17B7D1B5
:100040003877CC2B329595E6241FB14F0A0000205B
:10005000410000C84200401C4620BCBE4CCA1B0EDA
:100060005AAEC59D740011241FBECFE5D2E0DEBF9D
:10007000CDBF10E0A0E6B0E0E0E1FAE102C00590FB
:100080000D92A037B107D9F710E0A0E7B0E001C0AA
:100090001D92A237B107E1F722D0B8CCB1CF1F93A0
:1000A000CF93DF938CE0B4D1E7D185D181D110E03B
:1000B000C0E2DEE4812F60E071D1CE010197F1F75B
:1000C00080E690E08DD11F5F1031A1F780E29EE4C1
:1000D0000197F1F76DD1DF91CF911F9108952F9284
:1000E0003F924F925F926F927F929F92AF92BF9298
:1000F000CF92DF92EF92FF920F931F93DF93CF93F4
:10010000CDB7DEB7C055D0400FB6F894DEBF0FBEF6
:10011000CDBFC5DFCC24DD24AA24BB2452E6952E16
:1001200041E2242E312C2C0E3D1E31E3432E512C66
:100130004C0E5D1E21E4622E712C6C0E7D1ECBD107
:10014000182F8823E1F38C2D60E028D1812F36D140
:100150008FE534D1E1E0F0E0EC0FFD1FEC0DFD1D6B
:1001600010830894C11CD11C1B3229F4AA24BB247F
:100170009BE2992E0EC01D3249F0183739F01F321C
:1001800041F4AA24BB248FE2982E03C0912EAA2406
:10019000BB24E1E1F0E0EC0FFD1FEA0DFB1D108335
:1001A0000894A11CB11C1D3351F6B501625070407A
:1001B000A6014A195B0920E030E00DC0F101E20F11
:1001C000F31FA1E0B0E0AC0FBD1FA20FB31F8C91D5
:1001D00080832F5F3F4F2417350784F3D201CC244F
:1001E000DD240BC00894C11CD11CE1E1F0E0EC0F50
:1001F000FD1FEC0DFD1D80818D93C616D70694F36F
:1002000080E29EE40197F1F7C10190D77B018C0158
:10021000C2018CD79B01AC018FE29816E9F08915D9
:1002200038F09BE2991661F0EDE29E1621F40CC0C5
:10023000F8E79F1669F0A0E070E080E060E011C090
:10024000C801B7012CD40BC0C801B701FDD307C04A
:10025000C801B7014BD403C0C801B7013CD5A62FD4
:10026000692F2DB73EB7285030400FB6F8943EBFE7
:100270000FBE2DBF0DB71EB70F5F1F4FEDB7FEB7F7
:100280007282618222E630E0F801338322832A2FD2
:10029000372F482F562FC901DA0184839583A6830F
:1002A000B78347D72DB73EB7285F3F4F0FB6F894B7
:1002B0003EBF0FBE2DBF80E061E070D0C30190D083
:1002C0003ECF662311F0909A01C0909891988C9A35
:1002D0008D9A8E9A8F9A979896989598949887FD6C
:1002E000979A86FD969A85FD959A84FD949A929A9E
:1002F00000C09298979896989598949883FD979AAD
:1003000082FD969A81FD959A80FD949A929A00C0FA
:100310009298949A959A969A979A0895882311F0AC
:10032000909A01C09098919A8C988D988E988F98F9
:10033000929A00C0849B02C080E101C080E0859950
:1003400080628699806487998068929800C0929AAA
:1003500000C08499816085998260869984608799BC
:1003600088609298089580E0D9DF87FDFCCF88E00F
:1003700090E00197F1F780E0D1DF08951F93182FE7
:10038000F2DF812F60E09DDF1F9108951F93182FEA
:10039000EADF812F61E095DF1F910895662311F454
:1003A000805801C08054EADF0895DDDF90E00895B1
:1003B00081E0E4DF089582E0E1DF08951F93182FC4
:1003C000D2DF1A3041F4803410F080E001C080E4C4
:1003D0008058D4DF03C0812F61E073DF1F9108953F
:1003E000CF93DF93EC0101C0E9DF89918823E1F726
:1003F000DF91CF910895CF93DF93EC0101C0DEDF51
:10040000FE01219684918823D1F7DF91CF91089541
:100410001F93182F889A899A8A9A8C9A8D9A8E9A05
:100420008F9A80E09AEF0197F1F7959A949A929AB1
:1004300000C0929880E09EE40197F1F7929A00C084
:10044000929880E091E0FC013197F1F7929A00C018
:100450009298FC013197F1F79498929A00C0929883
:100460000197F1F788E28ADF88E088DF86E086DF9F
:10047000812F84DF1F910895A09AA19AA29AA39A2E
:10048000A498A598A698A798AC9AAD9AAE9AAF9A58
:10049000A89AA99AAA9AAB9A0895882319F4A898B9
:1004A000A99A04C0813021F4A89AA998AA9A05C0F3
:1004B000823029F4A89AA99AAA98AB9A0895833011
:1004C00021F4A89AA99AAA9AAB980895A89AA99AE9
:1004D000AA9AAB9A08951F9380E0DFDF88EA91E63D
:1004E0000197F1F743B363B383B323B370E06F6D48
:1004F0007F6F60957095F5E075956795FA95E1F7D2
:10050000660F771F90E08F6B9F6F8095909556E0F8
:10051000959587955A95E1F7880F991F880F991F30
:10052000682B792B50E04F6E5F6F4095509514E02B
:10053000559547951A95E1F7642B752B30E02F6799
:100540003F6F20953095220F232F221F330BA3E0FE
:10055000220F331FAA95E1F7622B732B62307105CE
:1005600091F06330710524F46130710551F407C0D6
:100570006430710551F06830710519F408C011E458
:1005800007C010E005C015E503C013E401C013E582
:1005900081E083DF88EA91E60197F1F743B363B323
:1005A00083B323B370E06F6D7F6F60957095F5E056
:1005B00075956795FA95E1F7660F771F90E08F6B59
:1005C0009F6F8095909556E0959587955A95E1F7A0
:1005D000880F991F880F991F682B792B50E04F6E59
:1005E0005F6F4095509584E0559547958A95E1F762
:1005F000642B752B30E02F673F6F20953095220FCD
:10060000232F221F330BA3E0220F331FAA95E1F7FC
:10061000622B732B6230710581F06330710524F415
:100620006130710579F407C06430710541F06830BC
:10063000710541F406C015E405C018E403C014E4D4
:1006400001C012E582E029DF88EA91E60197F1F71F
:1006500043B363B383B323B370E06F6D7F6F609573
:100660007095F5E075956795FA95E1F7660F771F38
:1006700090E08F6B9F6F8095909556E0959587954C
:100680005A95E1F7880F991F880F991F682B792BCE
:1006900050E04F6E5F6F4095509594E055954795AB
:1006A0009A95E1F7642B752B30E02F673F6F20950B
:1006B0003095220F232F221F330BB3E0220F331F5D
:1006C000BA95E1F7622B732B6230710581F06330CC
:1006D000710524F46130710579F407C06430710547
:1006E00041F06830710541F406C019E405C01CE40E
:1006F00003C016E401C014E583E0CFDE88EA91E68A
:100700000197F1F743B363B383B323B370E06F6D25
:100710007F6F60957095A5E075956795AA95E1F74F
:10072000660F771F90E08F6B9F6F80959095E6E046
:1007300095958795EA95E1F7880F991F880F991F7E
:10074000682B792B50E04F6E5F6F4095509534E0E9
:10075000559547953A95E1F7642B752B30E02F6757
:100760003F6F20953095220F232F221F330B83E0FC
:10077000220F331F8A95E1F7622B732B62307105CC
:1007800081F06330710524F46130710579F407C09C
:100790006430710541F06830710541F406C01FE412
:1007A00005C010E503C011E501C017E48FDE812FFD
:1007B0001F910895A0E0B0E0EFEDF3E080C4DC010C
:1007C0002B01FA019C91923008F439C1EB01888128
:1007D000823008F433C1943069F4843009F02FC1B9
:1007E00011969C9111978981981709F428C1A7E661
:1007F000B0E025C1843009F421C18230A9F49230DF
:1008000009F01DC19A01AD0188E0EA010990AE012D
:10081000E90109929E018150C1F7E2018981119697
:100820009C918923818308C1923009F407C11296F3
:100830002D903C901397EB018A819B811496AD908B
:10084000BD90CD90DC901797EC80FD800E811F81CC
:100850009101281B390BB90137FF04C066277727A0
:10086000621B730B603271050CF061C01216130627
:100870006CF537014801062E04C09694879477944E
:1008800067940A94D2F721E030E040E050E004C0E1
:10089000220F331F441F551F6A95D2F72150304055
:1008A000404050402E213F21402351232115310546
:1008B0004105510521F021E030E040E050E07901B0
:1008C0008A01E628F728082919293CC0232BD1F1F1
:1008D000260E371E35014601062E04C096948794D5
:1008E000779467940A94D2F721E030E040E050E03A
:1008F00004C0220F331F441F551F6A95D2F72150A1
:100900003040404050402A213B214C215D2121159F
:1009100031054105510521F021E030E040E050E093
:1009200059016A01A628B728C828D9280BC0821502
:1009300093052CF01C01AA24BB24650103C0EE24FE
:10094000FF24870111969C91D20111968C919817E2
:1009500009F445C0992339F0A80197012A193B09E8
:100960004C095D0906C0A60195012E193F09400BEF
:10097000510B57FD08C011823382228224833583B4
:10098000468357831DC081E081833382228288277A
:100990009927DC01821B930BA40BB50B84839583F1
:1009A000A683B7830DC0220F331F441F551F248316
:1009B0003583468357838281938101979383828312
:1009C0002481358146815781DA01C9010197A10946
:1009D000B1098F5F9F4FAF4FBF4328F30BC0918387
:1009E00033822282EA0CFB1C0C1D1D1DE482F58261
:1009F0000683178383E08083248135814681578174
:100A000057FF1AC0C901AA2797FDA095BA2F817078
:100A10009070A070B0705695479537952795822BAA
:100A2000932BA42BB52B84839583A683B7838281D4
:100A30009381019693838283DF0101C0D201CD01AE
:100A4000CDB7DEB7E2E157C3A0E2B0E0E9E2F5E0FE
:100A500042C369837A838B839C832D833E834F8338
:100A60005887E9E0EE2EF12CEC0EFD1ECE0101962A
:100A7000B701ADD28E010F5E1F4FCE010596B801B2
:100A8000A6D28A8991E089278A8BC701B801AE0175
:100A9000475E5F4F8FDEC6D1A096E6E038C3A0E286
:100AA000B0E0E4E5F5E017C369837A838B839C8328
:100AB0002D833E834F835887F9E0EF2EF12CEC0E07
:100AC000FD1ECE010196B70182D28E010F5E1F4F2F
:100AD000CE010596B8017BD2C701B801AE01475ED1
:100AE0005F4F68DE9FD1A096E6E011C3A0E2B0E0C0
:100AF000EBE7F5E0E4C269837A838B839C832D83E3
:100B00003E834F835887CE010196BE01675F7F4FBA
:100B10005ED2CE010596BE016F5E7F4F58D2998599
:100B2000923088F089898230C8F0943019F482308C
:100B300051F404C0843029F4923081F487E690E0C7
:100B4000C6C0923049F420E09A858A89981321E042
:100B50002A87CE010996BBC0823049F420E09A85ED
:100B60008A89981321E02A8BCE014196B0C02D844A
:100B70003E844F8458886D887E888F88988CEE24B8
:100B8000FF248701AA24BB24650140E050E060E017
:100B900070E0E0E0F0E0C10181709070892BE9F035
:100BA000E60CF71C081D191D9A01AB012A0D3B1D0F
:100BB0004C1D5D1D80E090E0A0E0B0E0E614F7047D
:100BC0000805190520F481E090E0A0E0B0E0BA014A
:100BD000A901480F591F6A1F7B1FAA0CBB1CCC1C04
:100BE000DD1C97FE08C081E090E0A0E0B0E0A82AFC
:100BF000B92ACA2ADB2A3196E032F10549F0660C9F
:100C0000771C881C991C5694479437942794C3CF1B
:100C1000FA85EA892B893C898B859C85280F391FA9
:100C20002E5F3F4F17C0CA0181709070892B61F011
:100C300016950795F794E79480E090E0A0E0B0E87F
:100C4000E82AF92A0A2B1B2B769567955795479525
:100C50002F5F3F4F77FDE7CF0CC0440F551F661F36
:100C6000771F17FD4160EE0CFF1C001F111F215064
:100C70003040403090E0590790E0690790E47907F0
:100C800060F32B8F3C8FDB01CA018F779070A070CF
:100C9000B07080349105A105B10561F447FD0AC02B
:100CA000E114F1040105110529F0405C5F4F6F4F1D
:100CB0007F4F40781A8EFE1711F081E08A8F4D8F9A
:100CC0005E8F6F8F78A383E0898FCE014996AAD07B
:100CD000A096E2E110C2A8E1B0E0E0E7F6E0F7C1DB
:100CE00069837A838B839C832D833E834F835887CC
:100CF000B9E0EB2EF12CEC0EFD1ECE010196B701F2
:100D000066D18E010F5E1F4FCE010596B8015FD1EF
:100D10002985223008F47EC03989323010F4B801B8
:100D20007CC08A859A8989278A87243011F02230ED
:100D300031F4231709F06EC067E670E06EC03430FE
:100D400039F41D861E861F86188A1C861B8604C0E1
:100D5000323021F484E08987B7015FC02B853C8560
:100D60008B899C89281B390B3C872B87ED84FE845B
:100D70000F851889AD88BE88CF88D88CEA14FB040B
:100D80000C051D0540F4EE0CFF1C001F111F215027
:100D900030403C872B8720E030E040E050E080E0AE
:100DA00090E0A0E0B0E460E070E0EA14FB040C0521
:100DB0001D0540F0282B392B4A2B5B2BEA18FB082A
:100DC0000C091D09B695A79597958795EE0CFF1C04
:100DD000001F111F6F5F7F4F6F31710531F7DA010F
:100DE000C9018F779070A070B07080349105A10513
:100DF000B10561F427FD0AC0E114F10401051105F4
:100E000029F0205C3F4F4F4F5F4F20782D873E8762
:100E10004F87588BBE01675F7F4FCB0103D0689629
:100E2000EAE071C1DF92EF92FF920F931F93FC01F2
:100E3000E480F58006811781D1808081823048F47A
:100E400080E090E0A0E1B0E0E82AF92A0A2B1B2B11
:100E5000A5C0843009F49FC0823021F4EE24FF2421
:100E6000870105C0E114F1040105110519F4E0E062
:100E7000F0E096C0628173819FEF623879070CF0D1
:100E80005BC022E83FEF261B370B2A3131052CF0DF
:100E900020E030E040E050E02AC0B801A701022E77
:100EA00004C076956795579547950A94D2F781E0E7
:100EB00090E0A0E0B0E004C0880F991FAA1FBB1FFC
:100EC0002A95D2F70197A109B1098E219F21A0236C
:100ED000B1230097A105B10521F081E090E0A0E0E9
:100EE000B0E09A01AB01282B392B4A2B5B2BDA019E
:100EF000C9018F779070A070B07080349105A10502
:100F0000B10539F427FF09C0205C3F4F4F4F5F4FB9
:100F100004C0215C3F4F4F4F5F4FE0E0F0E02030D6
:100F2000A0E03A07A0E04A07A0E45A0710F0E1E089
:100F3000F0E079018A0127C06038710564F5FB0192
:100F4000E158FF4FD801C7018F779070A070B07043
:100F500080349105A105B10539F4E7FE0DC080E4A8
:100F600090E0A0E0B0E004C08FE390E0A0E0B0E04B
:100F7000E80EF91E0A1F1B1F17FF05C016950795DF
:100F8000F794E794319687E016950795F794E794E0
:100F90008A95D1F705C0EE24FF248701EFEFF0E03A
:100FA0006E2F679566276795902F9F77D794DD24DE
:100FB000D7948E2F8695492F462B582F5D29B70140
:100FC000CA011F910F91FF90EF90DF900895FC01EF
:100FD000DB01408151812281622F6F7770E0221FF7
:100FE0002227221F9381892F880F822B282F30E000
:100FF000991F9927991F11969C93119721153105D7
:10100000A9F5411551056105710511F482E037C05C
:1010100082E89FEF13969C938E9312979A01AB01EF
:1010200067E0220F331F441F551F6A95D1F783E0F5
:101030008C930DC0220F331F441F551F12968D91A4
:101040009C911397019713969C938E93129720303F
:1010500080E0380780E0480780E4580758F314968A
:101060002D933D934D935C93179708952F3F310532
:1010700079F4411551056105710519F484E08C93EB
:10108000089564FF03C081E08C9312C01C9210C0CD
:101090002F57304013963C932E93129783E08C93F6
:1010A00087E0440F551F661F771F8A95D1F770643C
:1010B00014964D935D936D937C93179708952F929B
:1010C0003F924F925F926F927F928F929F92AF92D8
:1010D000BF92CF92DF92EF92FF920F931F93CF9325
:1010E000DF93CDB7DEB7CA1BDB0B0FB6F894DEBFBC
:1010F0000FBECDBF09942A88398848885F846E84E2
:101100007D848C849B84AA84B984C884DF80EE802B
:10111000FD800C811B81AA81B981CE0FD11D0FB634
:10112000F894DEBF0FBECDBFED0108956627772787
:10113000EFC1AEE0B0E0EEE9F8E0CFCF0D891E8957
:1011400086E08C831A8309838FEF9FE79E838D83CC
:101150009E01275E3F4FCE0101966F89788DA901D0
:1011600009D02F813885020F131FF80110822E96A7
:10117000E4E0CFCFABE0B0E0EFEBF8E0A0CF3C0194
:101180002B015A01FC0117821682838181FD03C065
:101190006FEF7FEFB9C19AE0892E1E010894211CE0
:1011A000311CF3012381F20123FD859123FF8191FD
:1011B0002F01882309F4A5C1853239F423FD8591D7
:1011C00023FF81912F01853221F490E0B3012CD3CC
:1011D000E8CF982FFF24EE249924FFE1FF15D0F0EB
:1011E0009B3269F09C3228F4903259F0933291F49A
:1011F0000EC09D3249F0903369F441E024C052E0C2
:10120000F52A84E0F82A28C098E0F92A25C0E0E110
:10121000FE2A22C0F7FC29C0892F80538A3070F43F
:10122000F6FE05C0989C902C1124980E15C0E89CE1
:10123000E02C1124E80EF0E2FF2A0EC09E3229F4C1
:10124000F6FC5FC140E4F42A07C09C3619F450E86C
:10125000F52A02C0983649F4F20123FD959123FF47
:1012600091912F01992309F0B8CF892F85548330AC
:1012700018F08052833038F444E050E0A40EB51EDC
:101280005FE359830FC0933631F0933779F093358C
:1012900009F052C01FC0F5018081898342E050E00F
:1012A000A40EB51E610101E010E011C0F501C0807F
:1012B000D180F6FC03C06FEF7FEF02C0692D70E0B4
:1012C00042E050E0A40EB51EC601A3D28C015FE738
:1012D000F52213C0F501C080D180F6FC03C06FEF8A
:1012E0007FEF02C0692D70E042E050E0A40EB51E11
:1012F000C60184D28C0150E8F52AF3FE06C018C05E
:1013000080E290E0B30190D2EA948E2D90E008172D
:101310001907B0F30DC0F601F7FC8591F7FE819136
:101320006F0190E0B30180D2E110EA9401501040C7
:101330000115110581F7E2C0943611F0993661F577
:10134000F7FE08C0F501208131814281538184E09C
:1013500090E00AC0F501808191819C01442737FD0E
:101360004095542F82E090E0A80EB91E9FE6F92226
:1013700057FF09C050954095309521953F4F4F4FED
:101380005F4FE0E8FE2ACA01B901A1012AE030E07E
:1013900077D2D82ED2183FC0953729F41F2D1F7E43
:1013A0002AE030E01DC01F2D197F9F3661F0903775
:1013B00020F4983509F0A5C00FC0903739F0983760
:1013C00009F09FC004C028E030E00AC0106114FD9D
:1013D000146020E130E004C014FD166020E132E02A
:1013E00017FF08C0F501608171818281938144E01B
:1013F00050E008C0F50180819181BC0180E090E05F
:1014000042E050E0A40EB51EA1013AD2D82ED21867
:101410008FE7F82EF122F6FE0BC05EEFF522D9140D
:1014200038F4F4FE07C0F2FC05C08FEEF82202C0CB
:101430001D2D01C0192DF4FE0DC0FE01ED0DF11D95
:101440008081803319F499EEF92208C01F5FF2FE03
:1014500005C003C08F2D867809F01F5F0F2DF3FCA8
:1014600013C0F0FE0EC01E1510F09D2C0AC09D2C5E
:101470009E0C911A1E2D05C080E290E0B301D4D1DC
:101480001F5F1E15C8F304C01E1510F4E11A01C039
:10149000EE2404FF0EC080E390E0B301C5D102FF4B
:1014A0001BC001FD03C088E790E00EC088E590E016
:1014B0000BC0802F867881F001FF02C08BE201C053
:1014C00080E2F7FC8DE290E0B301AED105C080E38D
:1014D00090E0B301A9D19A94D914C8F3DA94F10138
:1014E000ED0DF11D808190E0B3019ED1DD20B1F7BB
:1014F00005C080E290E0B30197D1EA94EE20C9F7ED
:1015000050CEF30166817781CB012B96E2E1F3CDDA
:10151000A0E0B0E0EDE8FAE0D8CDEC015B016115A8
:10152000710519F0FB0191838083F9908F2D90E074
:1015300045D1892BD1F7FDE2FF1621F4F990EE2475
:10154000E39405C02BE2F21609F4F990EE248E0123
:1015500001501040C8016AE270E043E050E036D12B
:10156000892BF9F48E010E5F1F4FC8016DE270E008
:1015700045E050E02BD1892B19F48E01095F1F4FF4
:10158000A114B10419F0F50111830083E0FC04C03B
:1015900070E090E080E813C070E090E080E86FEFCA
:1015A00003C1C80162E370E043E050E00FD1892B32
:1015B00069F4A114B10429F470E090E080EC6FE7C5
:1015C000F3C02296F501D183C083F6CF88249924F5
:1015D00040E050E060E070E0EF2DE053EA30A0F52D
:1015E000F2E0EF2A8E2D90E09C0128703070E2FE30
:1015F00006C0232B79F50894811C911C2BC0232B4A
:1016000019F0089481089108DB01CA0112E0880FE3
:10161000991FAA1FBB1F1A95D1F7480F591F6A1FA0
:101620007B1F440F551F661F771F4E0F511D611DF5
:10163000711D483929E9520729E9620729E1720732
:1016400048F084E0E82A06C0EE3F31F4E3FC39C0FC
:1016500098E0E92AF990C0CFE53311F0E53189F53A
:1016600029912D3219F4E0E1EE2A05C02B3219F050
:1016700081E090E003C0299182E090E0E22FE05306
:10168000EA3018F0C81BD90B1CC020E030E0FCE0A9
:1016900020383F075CF4C901880F991F880F991FF4
:1016A000280F391F220F331F2E0F311DE991E053F0
:1016B000EA3068F3E4FE03C0309521953F4F820E77
:1016C000931ECE2CDD24E1FE07C0A114B10421F04D
:1016D0002197F501D183C083CB01BA0133D17B01BE
:1016E0008C01F3E0CF22DD2423E0C216D10421F4E3
:1016F00017FB109517F9109557016801C801B7013C
:1017000020E030E040E050E019D1882309F448C0DF
:1017100097FE0DC029E4E22E20E0F22E90948194F1
:1017200091089394C0E2D0E000E010E011C091E68F
:10173000E92E90E0F92EF6CFF701259135914591EC
:101740005491C601B501D2D95B016C018C1A9D0A76
:101750008C169D068CF7D595C7950F5F1F4F0630E9
:10176000110529F08CEF9FEFE80EF91EF1CFC501AE
:10177000D6017C018D018C2D880F8D2D881F8F3F08
:1017800049F0C601B50120E030E040E050E0D6D09D
:10179000882331F482E290E090937100809370008E
:1017A0007E2D9F2D802F612F272F392F482F562FC9
:1017B000B901CA01CDB7DEB7ECE0A3CC911123C1CA
:1017C000803219F089508550D0F70895FB01DC0173
:1017D0004150504088F08D9181341CF08B350CF4D1
:1017E000805E659161341CF06B350CF4605E861B85
:1017F000611171F3990B0895881BFCCFFC010590D2
:10180000615070400110D8F7809590958E0F9F1F02
:101810000895FC016150704001900110D8F7809547
:1018200090958E0F9F1F08950F931F93CF93DF9373
:101830008C01EB018B8181FF1BC082FF0DC02E81CB
:101840003F818C819D812817390764F4E881F981F3
:101850000193F983E88306C0E885F985802F09950F
:10186000892B31F48E819F8101969F838E8302C0E4
:101870000FEF1FEFC801DF91CF911F910F910895D6
:10188000FA01AA27283051F1203181F1E8946F93B1
:101890006E7F6E5F7F4F8F4F9F4FAF4FB1E03ED057
:1018A000B4E03CD0670F781F891F9A1FA11D680FF5
:1018B000791F8A1F911DA11D6A0F711D811D911D28
:1018C000A11D20D009F468943F912AE0269F11249D
:1018D0003019305D3193DEF6CF010895462F477001
:1018E000405D4193B3E00FD0C9F7F6CF462F4F705C
:1018F000405D4A3318F0495D31FD4052419302D0BA
:10190000A9F7EACFB4E0A69597958795779567955F
:10191000BA95C9F700976105710508959B01AC015F
:101920000A2E06945795479537952795BA95C9F786
:10193000620F731F841F951FA01D089540D008F4E7
:1019400081E00895E89409C097FB3EF49095809556
:10195000709561957F4F8F4F9F4F9923A9F0F92F75
:1019600096E9BB279395F695879577956795B795F3
:10197000F111F8CFFAF4BB0F11F460FF1BC06F5FD9
:101980007F4F8F4F9F4F16C0882311F096E911C0EB
:10199000772321F09EE8872F762F05C0662371F00C
:1019A00096E8862F70E060E02AF09A95660F771F20
:1019B000881FDAF7880F9695879597F90895990FFC
:1019C0000008550FAA0BE0E8FEEF16161706E80709
:1019D000F907C0F012161306E407F50798F0621B2A
:1019E000730B840B950B39F40A2661F0232B242BFF
:1019F000252B21F408950A2609F4A140A6958FEF1E
:101A0000811D811D0895992788270895F894FFCF97
:101A10002000252E326600000000000000000000BB
:00000001FF
