:1000000014C026C025C024C023C022C021C020C0E7
:100010001FC01EC01DC01CC01BC01AC019C018C004
:1000200017C016C015C014C013C011241FBECFE5E1
:10003000D2E0DEBFCDBF10E0A0E6B0E0ECECF6E031
:1000400002C005900D92AC36B107D9F70BD33CC373
:10005000D7CF672B09F09FC0009711F4D898089567
:100060008130910511F4D99808958230910511F4E9
:10007000DA9808958330910511F4DB98089584305F
:10008000910511F4DC9808958530910511F4DD98FF
:1000900008958630910511F4DE9808958730910512
:1000A00011F4DF9808958A30910511F4C0980895ED
:1000B0008B30910511F4C19808958C30910511F49D
:1000C000C29808958D30910511F4C39808958E302B
:1000D000910511F4C49808958F30910511F4C598D5
:1000E00008958031910511F4C698089581319105E4
:1000F00011F4C79808958431910511F4A8980895D2
:100100008531910511F4A99808958631910511F46E
:10011000AA9808958731910511F4AB980895883114
:10012000910511F4AC9808958931910511F4AD98B9
:1001300008958A31910511F4AE9808958B31910597
:1001400011F4AF9808958E31910511F490980895A7
:100150008F31910511F4919808958032910511F431
:10016000929808958132910511F4939808958232FE
:10017000910511F4949808958332910511F495989E
:1001800008958432910511F496980895859709F0A1
:100190009FC097980895009711F4D89A08958130D8
:1001A000910511F4D99A08958230910511F4DA9AE3
:1001B00008958330910511F4DB9A089584309105F8
:1001C00011F4DC9A08958530910511F4DD9A0895B3
:1001D0008630910511F4DE9A08958730910511F467
:1001E000DF9A08958A30910511F4C09A08958B30F2
:1001F000910511F4C19A08958C30910511F4C29AB9
:1002000008958D30910511F4C39A08958E309105AB
:1002100011F4C49A08958F30910511F4C59A089588
:100220008031910511F4C69A08958131910511F438
:10023000C79A08958431910511F4A89A08958531DB
:10024000910511F4A99A08958631910511F4AA9A9D
:1002500008958731910511F4AB9A0895883191057D
:1002600011F4AC9A08958931910511F4AD9A08956D
:100270008A31910511F4AE9A08958B31910511F4EC
:10028000AF9A08958E31910511F4909A08958F31A7
:10029000910511F4919A08958032910511F4929A82
:1002A00008958132910511F4939A0895823291054F
:1002B00011F4949A08958332910511F4959A089552
:1002C0008432910511F4969A0895859709F4979AC6
:1002D00008950F931F93082F182F80FF05C084E106
:1002E00090E061E070E004C084E190E060E070E0E4
:1002F000B0DE11FF05C085E190E061E070E004C070
:1003000085E190E060E070E0A4DE12FF05C086E1C8
:1003100090E061E070E004C086E190E060E070E0B1
:1003200098DE13FF05C087E190E061E070E004C053
:1003300087E190E060E070E08CDE14FF05C088E1AA
:1003400090E061E070E004C088E190E060E070E07F
:1003500080DE15FF05C089E190E061E070E004C037
:1003600089E190E060E070E074DE16FF05C08AE18C
:1003700090E061E070E004C08AE190E060E070E04D
:1003800068DE07FF05C08BE190E061E070E004C02B
:100390008BE190E060E070E05CDE1F910F910895CA
:1003A0000F931F93182F86E090E060E070E051DE1D
:1003B000812F8FDF87E090E061E070E04ADE08EE99
:1003C00013E0C8010197F1F787E090E060E070E08A
:1003D00040DEC8010197F1F71F910F91089581E068
:1003E000DFDF0895813021F4862F8058D9DF08950A
:1003F000823019F4862F8054D3DF089586E090E090
:1004000060E070E026DE87E090E060E070E021DEF2
:1004100080E29EE40197F1F780E3C2DF88E893E190
:100420000197F1F780E3BCDF88EE93E00197F1F7E5
:1004300080E3B6DF80E197E20197F1F788E3B0DF70
:100440008CE0AEDF81E0ACDF86E0AADF08950F9399
:100450001F93182F86E090E061E070E0FADD812FB5
:1004600038DF87E090E061E070E0F3DD08EE13E054
:10047000C8010197F1F787E090E060E070E0E9DD06
:10048000C8010197F1F71F910F910895CF93DF9362
:10049000EC0101C0DCDF89918823E1F7DF91CF9186
:1004A00008958CE17DDF089588E17ADF0895CF9388
:1004B000DF93C82F80FF05C088E190E061E070E025
:1004C00004C088E190E060E070E0C3DDC1FF05C0DA
:1004D00089E190E061E070E004C089E190E060E0D3
:1004E00070E0B7DDC2FF05C08AE190E061E070E036
:1004F00004C08AE190E060E070E0ABDDC3FF05C0BE
:100500008BE190E061E070E004C08BE190E060E09E
:1005100070E09FDDDF91CF9108950F931F93182F07
:1005200086E090E060E070E094DD812FC0DF87E03E
:1005300090E061E070E08DDD08EE13E0C801019706
:10054000F1F787E090E060E070E083DDC80101979B
:10055000F1F71F910F91089580E0DFDF81E0DDDF8B
:1005600008951F93813019F4162F105804C082305B
:1005700049F4162F1054812F82958F70CEDF812F72
:100580008F70CBDF1F91089580E091DF80E29EE4C1
:100590000197F1F783E0C1DF88E893E10197F1F774
:1005A00083E0BBDF88EF9AE20197F1F783E0B5DFE4
:1005B00082E0B3DF82E0B1DF88E0AFDF80E0ADDF73
:1005C0008CE0ABDF80E0A9DF86E0A7DF0895FF9233
:1005D0000F931F93F82E86E090E061E070E039DD24
:1005E0008F2D82958F7063DF87E090E061E070E08F
:1005F00030DD08EE13E0C8010197F1F787E090E0E5
:1006000060E070E026DDC8010197F1F78F2D8F7053
:100610004EDF87E090E061E070E01BDDC8010197EC
:10062000F1F787E090E060E070E013DDC80101972A
:10063000F1F71F910F91FF900895CF93DF93EC0195
:1006400001C0C5DF89918823E1F7DF91CF9108953B
:1006500081E063DF8CE061DF089581E05EDF88E0A8
:100660005CDF08950F931F93CF93DF938FEF8ABBC7
:1006700084BBC4DE04E610E081E061E0B3DE80E626
:1006800090E004DFC0E0D0E00DC0F8013197F1F751
:100690000197D9F709DF2196CF30D10519F4C0E0D1
:1006A000D0E00DC088EE93E0F0CFF8013197F1F77C
:1006B0000197D9F7F6DE2196CF30D10519F088EEF3
:0C06C00093E0F3CF8CDED8CFF894FFCF8E
:0C06CC004553434F4D494F204C43440020
:00000001FF
