:1000000014C02EC02DC02CC02BC02AC029C028C0AF
:1000100027C026C025C024C023C022C021C020C0C4
:100020001FC01EC01DC01CC01BC011241FBECFE5B9
:10003000D2E0DEBFCDBF10E0A0E6B0E0E4EDF1E03D
:1000400002C005900D92A037B107D9F710E0A0E7E4
:10005000B0E001C01D92A737B107E1F702D0B8C0E8
:10006000CFCFCF92DF92EF92FF920F931F938FEF3C
:100070008ABB1BBA87BB18BA8FE084BB80EF85BBF5
:1000800011BA12BA13BE12BE1CBE1FBC1EBC1DBCD0
:100090001CBC17BC16BC1BBC1ABC19BC18BC12BCBF
:1000A00015BC14BC13BC19BE15BE14BE1AB880E82A
:1000B00088B910BE16B81DB816BE20917000909178
:1000C000760050917500409174003091730077EF85
:1000D000C72E6BEFD62EEE24E39404E08DEFF82EBE
:1000E00012E0B8E0AEEF60ED77E0C5BA83B3807F91
:1000F000803E11F42DE00BC0803D11F42CE007C0D0
:10010000803B11F42BE003C0803709F42AE0D5BA14
:1001100083B3807F803E11F42FE00BC0803D11F44B
:1001200027E007C0803B11F424E003C0803709F4C6
:1001300021E0F5BA83B3807F803E11F420E00BC04C
:10014000803D11F428E007C0803B11F425E003C096
:10015000803709F422E0A5BB83B3807F803E11F491
:100160002EE00BC0803D11F429E007C0803B11F464
:1001700026E003C0803709F423E0E22FF0E0E05AE4
:10018000FF4FE081E31719F4342F452F592FE8BAB8
:100190008E2F80958BBBCB010197F1F718BB832F76
:1001A00080958BBBCB010197F1F708BB842F80951D
:1001B0008BBBCB010197F1F7B8BB852F80958BBB2B
:1001C000CB010197F1F7952F542F432F3E2F8DCF61
:0401D000F894FFCFD1
:1001D4003F065D4F666B7B077F6F777A395E797177
:00000001FF
