:1000000014C026C025C024C023C022C021C020C0E7
:100010001FC01EC01DC01CC01BC01AC019C018C004
:1000200017C016C015C014C013C011241FBECFE5E1
:10003000D2E0DEBFCDBF10E0A0E6B0E0E6EBF0E03E
:1000400002C005900D92A237B107D9F702D031C096
:10005000D7CF1F93DF93CF93CDB7DEB762970FB69D
:10006000F894DEBF0FBECDBF8FEF8ABBDE011196C5
:10007000E0E6F0E082E101900D928150E1F71FE3AC
:10008000BE016F5F7F4F49E150E09E012B5E3F4F05
:100090001BBBDB010BC0FA013197F1F70197D9F7D0
:1000A0008C918BBB1296A217B30791F388E893E16A
:0600B000F2CFF894FFCF2F
:1000B60006005B004F0066006D007D0027007F0094
:0200C6006F00C9
:00000001FF
