S00E000070756E746F312E73726563AF
S11300000C942A000C9434000C9434000C943400A6
S11300100C9434000C9434000C9434000C9434008C
S11300200C9434000C9434000C9434000C9434007C
S11300300C9434000C9434000C9434000C9434006C
S11300400C9434000C9434000C9434000C9434005C
S11300500C94340011241FBECFE5D4E0DEBFCDBF25
S11300600E9436000C946A000C9400008FEF8ABB47
S113007081BBCA9B16C0DC9ADD9A2FEF89EF90E012
S1130080215080409040E1F700C00000DC98DD98EA
S11300902FEF89EF90E0215080409040E1F700C0BD
S11300A00000CB9BE6CFDE9ADF9A2FEF89EF90E03A
S11300B0215080409040E1F700C00000DE98DF98B6
S11300C02FEF89EF90E0215080409040E1F700C08D
S10B00D00000CFCFF894FFCF2C
S9030000FC
