:1000000014C02EC02DC02CC02BC02AC029C028C0AF
:1000100027C026C025C024C023C022C021C020C0C4
:100020001FC01EC01DC01CC01BC011241FBECFE5B9
:10003000D2E0DEBFCDBF10E0A0E6B0E0E0ECF3E040
:1000400002C005900D92A437B107D9F710E0A4E7DC
:10005000B0E001C01D92AE37B107E1F702D0AEC1EA
:10006000CFCF2F923F924F925F926F927F928F925B
:100070009F92AF92BF92CF92DF92EF92FF920F9337
:100080001F93CF93DF938FEF8ABB1BBA87BB18BA3E
:100090008FE084BB80EF85BB11BA12BA13BE12BECB
:1000A0001CBE1FBC1EBC1DBC1CBC17BC16BC1BBC94
:1000B0001ABC19BC18BC12BC15BC14BC13BC19BEAC
:1000C00015BE14BE1AB880E888B910BE16B81DB89F
:1000D00016BE0091720010917300C801039659D1A9
:1000E00080937600C801029654D180937700C801AE
:1000F00001964FD180937800C8014BD1809379004D
:10010000EE24E394C0EDD7E012E0F12E14E008E015
:10011000B7EF2B2EAFE06A2EF7E05F2EE5E04E2E14
:100120007EE0372E63E0962E56E0852E49E0742E51
:100130003DE0D32E2CE0C22E9BE0B92E8AE0A82E03
:1001400080916000803109F07FC0E8BA809176002C
:1001500080958BBBCE010197F1F7F8BA80917700BB
:1001600080958BBBCE010197F1F718BB8091780089
:1001700080958BBBCE010197F1F708BB8091790088
:1001800080958BBBCE010197F1F725BA83B3807FB1
:10019000803E19F4A09260000EC0803D19F4B09228
:1001A000600009C0803B19F4C092600004C0803731
:1001B00011F4D09260008BEF85BB83B3807F803ECB
:1001C00019F4709260000EC0803D19F480926000B6
:1001D00009C0803B19F49092600004C0803711F48C
:1001E000309260008DEF85BB83B3807F803E19F431
:1001F000009360000EC0803D19F44092600009C079
:10020000803B19F4F092600004C0803711F4109222
:1002100060008EEF85BB83B3807F80937400803E47
:1002200019F4509260008CCF803D19F41093600057
:1002300087CF803B19F4E092600082CF803709F0CD
:100240007FCF609260007CCF25BA83B3807F803EF1
:1002500019F4A09260000EC0803D19F4B0926000C5
:1002600009C0803B19F4C092600004C0803711F4CB
:10027000D09260008BEF85BB83B3807F803E19F402
:10028000709260000EC0803D19F48092600009C039
:10029000803B19F49092600004C0803711F43092D2
:1002A00060008DEF85BB83B3807F803E19F400939F
:1002B00060000EC0803D19F44092600009C0803B90
:1002C00019F4F092600004C0803711F410926000BD
:1002D0008EEF85BB83B3807F80937400803E19F4DA
:1002E000509260000EC0803D19F41093600009C068
:1002F000803B19F4E092600004C0803711F46092F2
:100300006000E0916000F0E0EF59FF4FE0819091D4
:100310007600E91751F08091780080937900809100
:1003200077008093780090937700E0937600E8BAA6
:10033000E095EBBBCE010197F1F7F8BA8091770019
:1003400080958BBBCE010197F1F718BB80917800A7
:1003500080958BBBCE010197F1F708BB60917900C6
:10036000862F80958BBBCE010197F1F780E590E059
:1003700018D081E590E06091780013D082E590E09C
:10038000609177000ED083E590E06091760009D00F
:10039000D7CEE199FECF9FBB8EBBE09A99278DB354
:1003A0000895262FE199FECF9FBB8EBB2DBB0FB6C4
:1003B000F894E29AE19A0FBE01960895F894FFCF5F
:1003C000103F065B4F666D7D077F6F777C395E79E6
:0403D0007100500068
:00000001FF
